{
  "_format": "hh-sol-artifact-1",
  "contractName": "ContractERC721",
  "sourceName": "contracts/ContractERC721.sol",
  "abi": [
    {
      "inputs": [],
      "stateMutability": "nonpayable",
      "type": "constructor"
    },
    {
      "inputs": [
        {
          "internalType": "address",
          "name": "sender",
          "type": "address"
        },
        {
          "internalType": "uint256",
          "name": "tokenId",
          "type": "uint256"
        },
        {
          "internalType": "address",
          "name": "owner",
          "type": "address"
        }
      ],
      "name": "ERC721IncorrectOwner",
      "type": "error"
    },
    {
      "inputs": [
        {
          "internalType": "address",
          "name": "operator",
          "type": "address"
        },
        {
          "internalType": "uint256",
          "name": "tokenId",
          "type": "uint256"
        }
      ],
      "name": "ERC721InsufficientApproval",
      "type": "error"
    },
    {
      "inputs": [
        {
          "internalType": "address",
          "name": "approver",
          "type": "address"
        }
      ],
      "name": "ERC721InvalidApprover",
      "type": "error"
    },
    {
      "inputs": [
        {
          "internalType": "address",
          "name": "operator",
          "type": "address"
        }
      ],
      "name": "ERC721InvalidOperator",
      "type": "error"
    },
    {
      "inputs": [
        {
          "internalType": "address",
          "name": "owner",
          "type": "address"
        }
      ],
      "name": "ERC721InvalidOwner",
      "type": "error"
    },
    {
      "inputs": [
        {
          "internalType": "address",
          "name": "receiver",
          "type": "address"
        }
      ],
      "name": "ERC721InvalidReceiver",
      "type": "error"
    },
    {
      "inputs": [
        {
          "internalType": "address",
          "name": "sender",
          "type": "address"
        }
      ],
      "name": "ERC721InvalidSender",
      "type": "error"
    },
    {
      "inputs": [
        {
          "internalType": "uint256",
          "name": "tokenId",
          "type": "uint256"
        }
      ],
      "name": "ERC721NonexistentToken",
      "type": "error"
    },
    {
      "anonymous": false,
      "inputs": [
        {
          "indexed": true,
          "internalType": "address",
          "name": "owner",
          "type": "address"
        },
        {
          "indexed": true,
          "internalType": "address",
          "name": "approved",
          "type": "address"
        },
        {
          "indexed": true,
          "internalType": "uint256",
          "name": "tokenId",
          "type": "uint256"
        }
      ],
      "name": "Approval",
      "type": "event"
    },
    {
      "anonymous": false,
      "inputs": [
        {
          "indexed": true,
          "internalType": "address",
          "name": "owner",
          "type": "address"
        },
        {
          "indexed": true,
          "internalType": "address",
          "name": "operator",
          "type": "address"
        },
        {
          "indexed": false,
          "internalType": "bool",
          "name": "approved",
          "type": "bool"
        }
      ],
      "name": "ApprovalForAll",
      "type": "event"
    },
    {
      "anonymous": false,
      "inputs": [
        {
          "indexed": true,
          "internalType": "address",
          "name": "from",
          "type": "address"
        },
        {
          "indexed": true,
          "internalType": "address",
          "name": "to",
          "type": "address"
        },
        {
          "indexed": true,
          "internalType": "uint256",
          "name": "tokenId",
          "type": "uint256"
        }
      ],
      "name": "Transfer",
      "type": "event"
    },
    {
      "inputs": [
        {
          "internalType": "address",
          "name": "recipient",
          "type": "address"
        }
      ],
      "name": "_Mint",
      "outputs": [],
      "stateMutability": "nonpayable",
      "type": "function"
    },
    {
      "inputs": [
        {
          "internalType": "address",
          "name": "to",
          "type": "address"
        },
        {
          "internalType": "uint256",
          "name": "tokenId",
          "type": "uint256"
        }
      ],
      "name": "approve",
      "outputs": [],
      "stateMutability": "nonpayable",
      "type": "function"
    },
    {
      "inputs": [
        {
          "internalType": "address",
          "name": "owner",
          "type": "address"
        }
      ],
      "name": "balanceOf",
      "outputs": [
        {
          "internalType": "uint256",
          "name": "",
          "type": "uint256"
        }
      ],
      "stateMutability": "view",
      "type": "function"
    },
    {
      "inputs": [
        {
          "internalType": "uint256",
          "name": "tokenId",
          "type": "uint256"
        }
      ],
      "name": "getApproved",
      "outputs": [
        {
          "internalType": "address",
          "name": "",
          "type": "address"
        }
      ],
      "stateMutability": "view",
      "type": "function"
    },
    {
      "inputs": [
        {
          "internalType": "address",
          "name": "owner",
          "type": "address"
        },
        {
          "internalType": "address",
          "name": "operator",
          "type": "address"
        }
      ],
      "name": "isApprovedForAll",
      "outputs": [
        {
          "internalType": "bool",
          "name": "",
          "type": "bool"
        }
      ],
      "stateMutability": "view",
      "type": "function"
    },
    {
      "inputs": [],
      "name": "name",
      "outputs": [
        {
          "internalType": "string",
          "name": "",
          "type": "string"
        }
      ],
      "stateMutability": "view",
      "type": "function"
    },
    {
      "inputs": [
        {
          "internalType": "uint256",
          "name": "tokenId",
          "type": "uint256"
        }
      ],
      "name": "ownerOf",
      "outputs": [
        {
          "internalType": "address",
          "name": "",
          "type": "address"
        }
      ],
      "stateMutability": "view",
      "type": "function"
    },
    {
      "inputs": [
        {
          "internalType": "address",
          "name": "from",
          "type": "address"
        },
        {
          "internalType": "address",
          "name": "to",
          "type": "address"
        },
        {
          "internalType": "uint256",
          "name": "tokenId",
          "type": "uint256"
        }
      ],
      "name": "safeTransferFrom",
      "outputs": [],
      "stateMutability": "nonpayable",
      "type": "function"
    },
    {
      "inputs": [
        {
          "internalType": "address",
          "name": "from",
          "type": "address"
        },
        {
          "internalType": "address",
          "name": "to",
          "type": "address"
        },
        {
          "internalType": "uint256",
          "name": "tokenId",
          "type": "uint256"
        },
        {
          "internalType": "bytes",
          "name": "data",
          "type": "bytes"
        }
      ],
      "name": "safeTransferFrom",
      "outputs": [],
      "stateMutability": "nonpayable",
      "type": "function"
    },
    {
      "inputs": [
        {
          "internalType": "address",
          "name": "operator",
          "type": "address"
        },
        {
          "internalType": "bool",
          "name": "approved",
          "type": "bool"
        }
      ],
      "name": "setApprovalForAll",
      "outputs": [],
      "stateMutability": "nonpayable",
      "type": "function"
    },
    {
      "inputs": [
        {
          "internalType": "bytes4",
          "name": "interfaceId",
          "type": "bytes4"
        }
      ],
      "name": "supportsInterface",
      "outputs": [
        {
          "internalType": "bool",
          "name": "",
          "type": "bool"
        }
      ],
      "stateMutability": "view",
      "type": "function"
    },
    {
      "inputs": [],
      "name": "symbol",
      "outputs": [
        {
          "internalType": "string",
          "name": "",
          "type": "string"
        }
      ],
      "stateMutability": "view",
      "type": "function"
    },
    {
      "inputs": [],
      "name": "tokenCounter",
      "outputs": [
        {
          "internalType": "uint256",
          "name": "",
          "type": "uint256"
        }
      ],
      "stateMutability": "view",
      "type": "function"
    },
    {
      "inputs": [
        {
          "internalType": "uint256",
          "name": "tokenId",
          "type": "uint256"
        }
      ],
      "name": "tokenURI",
      "outputs": [
        {
          "internalType": "string",
          "name": "",
          "type": "string"
        }
      ],
      "stateMutability": "view",
      "type": "function"
    },
    {
      "inputs": [
        {
          "internalType": "address",
          "name": "from",
          "type": "address"
        },
        {
          "internalType": "address",
          "name": "to",
          "type": "address"
        },
        {
          "internalType": "uint256",
          "name": "tokenId",
          "type": "uint256"
        }
      ],
      "name": "transferFrom",
      "outputs": [],
      "stateMutability": "nonpayable",
      "type": "function"
    }
  ],
  "bytecode": "0x608060405234801561001057600080fd5b506040518060400160405280600881526020017f50726f746f636f6c0000000000000000000000000000000000000000000000008152506040518060400160405280600381526020017f5054430000000000000000000000000000000000000000000000000000000000815250816000908161008c91906102fc565b50806001908161009c91906102fc565b50505060006006819055506103ce565b600081519050919050565b7f4e487b7100000000000000000000000000000000000000000000000000000000600052604160045260246000fd5b7f4e487b7100000000000000000000000000000000000000000000000000000000600052602260045260246000fd5b6000600282049050600182168061012d57607f821691505b6020821081036101405761013f6100e6565b5b50919050565b60008190508160005260206000209050919050565b60006020601f8301049050919050565b600082821b905092915050565b6000600883026101a87fffffffffffffffffffffffffffffffffffffffffffffffffffffffffffffffff8261016b565b6101b2868361016b565b95508019841693508086168417925050509392505050565b6000819050919050565b6000819050919050565b60006101f96101f46101ef846101ca565b6101d4565b6101ca565b9050919050565b6000819050919050565b610213836101de565b61022761021f82610200565b848454610178565b825550505050565b600090565b61023c61022f565b61024781848461020a565b505050565b5b8181101561026b57610260600082610234565b60018101905061024d565b5050565b601f8211156102b05761028181610146565b61028a8461015b565b81016020851015610299578190505b6102ad6102a58561015b565b83018261024c565b50505b505050565b600082821c905092915050565b60006102d3600019846008026102b5565b1980831691505092915050565b60006102ec83836102c2565b9150826002028217905092915050565b610305826100ac565b67ffffffffffffffff81111561031e5761031d6100b7565b5b6103288254610115565b61033382828561026f565b600060209050601f8311600181146103665760008415610354578287015190505b61035e85826102e0565b8655506103c6565b601f19841661037486610146565b60005b8281101561039c57848901518255600182019150602085019450602081019050610377565b868310156103b957848901516103b5601f8916826102c2565b8355505b6001600288020188555050505b505050505050565b611efa806103dd6000396000f3fe608060405234801561001057600080fd5b50600436106100f55760003560e01c806370a0823111610097578063b88d4fde11610066578063b88d4fde14610282578063c87b56dd1461029e578063d082e381146102ce578063e985e9c5146102ec576100f5565b806370a08231146101fc578063895d67d71461022c57806395d89b4114610248578063a22cb46514610266576100f5565b8063095ea7b3116100d3578063095ea7b31461017857806323b872dd1461019457806342842e0e146101b05780636352211e146101cc576100f5565b806301ffc9a7146100fa57806306fdde031461012a578063081812fc14610148575b600080fd5b610114600480360381019061010f9190611699565b61031c565b60405161012191906116e1565b60405180910390f35b6101326103fe565b60405161013f919061178c565b60405180910390f35b610162600480360381019061015d91906117e4565b610490565b60405161016f9190611852565b60405180910390f35b610192600480360381019061018d9190611899565b6104ac565b005b6101ae60048036038101906101a991906118d9565b6104c2565b005b6101ca60048036038101906101c591906118d9565b6105c4565b005b6101e660048036038101906101e191906117e4565b6105e4565b6040516101f39190611852565b60405180910390f35b6102166004803603810190610211919061192c565b6105f6565b6040516102239190611968565b60405180910390f35b6102466004803603810190610241919061192c565b6106b0565b005b6102506106d7565b60405161025d919061178c565b60405180910390f35b610280600480360381019061027b91906119af565b610769565b005b61029c60048036038101906102979190611b24565b61077f565b005b6102b860048036038101906102b391906117e4565b6107a4565b6040516102c5919061178c565b60405180910390f35b6102d661080d565b6040516102e39190611968565b60405180910390f35b61030660048036038101906103019190611ba7565b610813565b60405161031391906116e1565b60405180910390f35b60007f80ac58cd000000000000000000000000000000000000000000000000000000007bffffffffffffffffffffffffffffffffffffffffffffffffffffffff1916827bffffffffffffffffffffffffffffffffffffffffffffffffffffffff191614806103e757507f5b5e139f000000000000000000000000000000000000000000000000000000007bffffffffffffffffffffffffffffffffffffffffffffffffffffffff1916827bffffffffffffffffffffffffffffffffffffffffffffffffffffffff1916145b806103f757506103f6826108a7565b5b9050919050565b60606000805461040d90611c16565b80601f016020809104026020016040519081016040528092919081815260200182805461043990611c16565b80156104865780601f1061045b57610100808354040283529160200191610486565b820191906000526020600020905b81548152906001019060200180831161046957829003601f168201915b5050505050905090565b600061049b82610911565b506104a582610999565b9050919050565b6104be82826104b96109d6565b6109de565b5050565b600073ffffffffffffffffffffffffffffffffffffffff168273ffffffffffffffffffffffffffffffffffffffff16036105345760006040517f64a0ae9200000000000000000000000000000000000000000000000000000000815260040161052b9190611852565b60405180910390fd5b600061054883836105436109d6565b6109f0565b90508373ffffffffffffffffffffffffffffffffffffffff168173ffffffffffffffffffffffffffffffffffffffff16146105be578382826040517f64283d7b0000000000000000000000000000000000000000000000000000000081526004016105b593929190611c47565b60405180910390fd5b50505050565b6105df8383836040518060200160405280600081525061077f565b505050565b60006105ef82610911565b9050919050565b60008073ffffffffffffffffffffffffffffffffffffffff168273ffffffffffffffffffffffffffffffffffffffff16036106695760006040517f89c62b640000000000000000000000000000000000000000000000000000000081526004016106609190611852565b60405180910390fd5b600360008373ffffffffffffffffffffffffffffffffffffffff1673ffffffffffffffffffffffffffffffffffffffff168152602001908152602001600020549050919050565b6106bc81600654610c0a565b600660008154809291906106cf90611cad565b919050555050565b6060600180546106e690611c16565b80601f016020809104026020016040519081016040528092919081815260200182805461071290611c16565b801561075f5780601f106107345761010080835404028352916020019161075f565b820191906000526020600020905b81548152906001019060200180831161074257829003601f168201915b5050505050905090565b61077b6107746109d6565b8383610c28565b5050565b61078a8484846104c2565b61079e6107956109d6565b85858585610d97565b50505050565b60606107af82610911565b5060006107ba610f48565b905060008151116107da5760405180602001604052806000815250610805565b806107e484610f68565b6040516020016107f5929190611d31565b6040516020818303038152906040525b915050919050565b60065481565b6000600560008473ffffffffffffffffffffffffffffffffffffffff1673ffffffffffffffffffffffffffffffffffffffff16815260200190815260200160002060008373ffffffffffffffffffffffffffffffffffffffff1673ffffffffffffffffffffffffffffffffffffffff16815260200190815260200160002060009054906101000a900460ff16905092915050565b60007f01ffc9a7000000000000000000000000000000000000000000000000000000007bffffffffffffffffffffffffffffffffffffffffffffffffffffffff1916827bffffffffffffffffffffffffffffffffffffffffffffffffffffffff1916149050919050565b60008061091d83611036565b9050600073ffffffffffffffffffffffffffffffffffffffff168173ffffffffffffffffffffffffffffffffffffffff160361099057826040517f7e2732890000000000000000000000000000000000000000000000000000000081526004016109879190611968565b60405180910390fd5b80915050919050565b60006004600083815260200190815260200160002060009054906101000a900473ffffffffffffffffffffffffffffffffffffffff169050919050565b600033905090565b6109eb8383836001611073565b505050565b6000806109fc84611036565b9050600073ffffffffffffffffffffffffffffffffffffffff168373ffffffffffffffffffffffffffffffffffffffff1614610a3e57610a3d818486611238565b5b600073ffffffffffffffffffffffffffffffffffffffff168173ffffffffffffffffffffffffffffffffffffffff1614610acf57610a80600085600080611073565b6001600360008373ffffffffffffffffffffffffffffffffffffffff1673ffffffffffffffffffffffffffffffffffffffff168152602001908152602001600020600082825403925050819055505b600073ffffffffffffffffffffffffffffffffffffffff168573ffffffffffffffffffffffffffffffffffffffff1614610b52576001600360008773ffffffffffffffffffffffffffffffffffffffff1673ffffffffffffffffffffffffffffffffffffffff168152602001908152602001600020600082825401925050819055505b846002600086815260200190815260200160002060006101000a81548173ffffffffffffffffffffffffffffffffffffffff021916908373ffffffffffffffffffffffffffffffffffffffff160217905550838573ffffffffffffffffffffffffffffffffffffffff168273ffffffffffffffffffffffffffffffffffffffff167fddf252ad1be2c89b69c2b068fc378daa952ba7f163c4a11628f55a4df523b3ef60405160405180910390a4809150509392505050565b610c248282604051806020016040528060008152506112fc565b5050565b600073ffffffffffffffffffffffffffffffffffffffff168273ffffffffffffffffffffffffffffffffffffffff1603610c9957816040517f5b08ba18000000000000000000000000000000000000000000000000000000008152600401610c909190611852565b60405180910390fd5b80600560008573ffffffffffffffffffffffffffffffffffffffff1673ffffffffffffffffffffffffffffffffffffffff16815260200190815260200160002060008473ffffffffffffffffffffffffffffffffffffffff1673ffffffffffffffffffffffffffffffffffffffff16815260200190815260200160002060006101000a81548160ff0219169083151502179055508173ffffffffffffffffffffffffffffffffffffffff168373ffffffffffffffffffffffffffffffffffffffff167f17307eab39ab6107e8899845ad3d59bd9653f200f220920489ca2b5937696c3183604051610d8a91906116e1565b60405180910390a3505050565b60008373ffffffffffffffffffffffffffffffffffffffff163b1115610f41578273ffffffffffffffffffffffffffffffffffffffff1663150b7a02868685856040518563ffffffff1660e01b8152600401610df69493929190611daa565b6020604051808303816000875af1925050508015610e3257506040513d601f19601f82011682018060405250810190610e2f9190611e0b565b60015b610eb6573d8060008114610e62576040519150601f19603f3d011682016040523d82523d6000602084013e610e67565b606091505b506000815103610eae57836040517f64a0ae92000000000000000000000000000000000000000000000000000000008152600401610ea59190611852565b60405180910390fd5b805181602001fd5b63150b7a0260e01b7bffffffffffffffffffffffffffffffffffffffffffffffffffffffff1916817bffffffffffffffffffffffffffffffffffffffffffffffffffffffff191614610f3f57836040517f64a0ae92000000000000000000000000000000000000000000000000000000008152600401610f369190611852565b60405180910390fd5b505b5050505050565b6060604051806060016040528060348152602001611e9160349139905090565b606060006001610f7784611320565b01905060008167ffffffffffffffff811115610f9657610f956119f9565b5b6040519080825280601f01601f191660200182016040528015610fc85781602001600182028036833780820191505090505b509050600082602001820190505b60011561102b578080600190039150507f3031323334353637383961626364656600000000000000000000000000000000600a86061a8153600a858161101f5761101e611e38565b5b04945060008503610fd6575b819350505050919050565b60006002600083815260200190815260200160002060009054906101000a900473ffffffffffffffffffffffffffffffffffffffff169050919050565b80806110ac5750600073ffffffffffffffffffffffffffffffffffffffff168273ffffffffffffffffffffffffffffffffffffffff1614155b156111e05760006110bc84610911565b9050600073ffffffffffffffffffffffffffffffffffffffff168373ffffffffffffffffffffffffffffffffffffffff161415801561112757508273ffffffffffffffffffffffffffffffffffffffff168173ffffffffffffffffffffffffffffffffffffffff1614155b801561113a57506111388184610813565b155b1561117c57826040517fa9fbf51f0000000000000000000000000000000000000000000000000000000081526004016111739190611852565b60405180910390fd5b81156111de57838573ffffffffffffffffffffffffffffffffffffffff168273ffffffffffffffffffffffffffffffffffffffff167f8c5be1e5ebec7d5bd14f71427d1e84f3dd0314c0f7b2291e5b200ac8c7c3b92560405160405180910390a45b505b836004600085815260200190815260200160002060006101000a81548173ffffffffffffffffffffffffffffffffffffffff021916908373ffffffffffffffffffffffffffffffffffffffff16021790555050505050565b611243838383611473565b6112f757600073ffffffffffffffffffffffffffffffffffffffff168373ffffffffffffffffffffffffffffffffffffffff16036112b857806040517f7e2732890000000000000000000000000000000000000000000000000000000081526004016112af9190611968565b60405180910390fd5b81816040517f177e802f0000000000000000000000000000000000000000000000000000000081526004016112ee929190611e67565b60405180910390fd5b505050565b6113068383611534565b61131b6113116109d6565b6000858585610d97565b505050565b600080600090507a184f03e93ff9f4daa797ed6e38ed64bf6a1f010000000000000000831061137e577a184f03e93ff9f4daa797ed6e38ed64bf6a1f010000000000000000838161137457611373611e38565b5b0492506040810190505b6d04ee2d6d415b85acef810000000083106113bb576d04ee2d6d415b85acef810000000083816113b1576113b0611e38565b5b0492506020810190505b662386f26fc1000083106113ea57662386f26fc1000083816113e0576113df611e38565b5b0492506010810190505b6305f5e1008310611413576305f5e100838161140957611408611e38565b5b0492506008810190505b612710831061143857612710838161142e5761142d611e38565b5b0492506004810190505b6064831061145b576064838161145157611450611e38565b5b0492506002810190505b600a831061146a576001810190505b80915050919050565b60008073ffffffffffffffffffffffffffffffffffffffff168373ffffffffffffffffffffffffffffffffffffffff161415801561152b57508273ffffffffffffffffffffffffffffffffffffffff168473ffffffffffffffffffffffffffffffffffffffff1614806114ec57506114eb8484610813565b5b8061152a57508273ffffffffffffffffffffffffffffffffffffffff1661151283610999565b73ffffffffffffffffffffffffffffffffffffffff16145b5b90509392505050565b600073ffffffffffffffffffffffffffffffffffffffff168273ffffffffffffffffffffffffffffffffffffffff16036115a65760006040517f64a0ae9200000000000000000000000000000000000000000000000000000000815260040161159d9190611852565b60405180910390fd5b60006115b4838360006109f0565b9050600073ffffffffffffffffffffffffffffffffffffffff168173ffffffffffffffffffffffffffffffffffffffff16146116285760006040517f73c6ac6e00000000000000000000000000000000000000000000000000000000815260040161161f9190611852565b60405180910390fd5b505050565b6000604051905090565b600080fd5b600080fd5b60007fffffffff0000000000000000000000000000000000000000000000000000000082169050919050565b61167681611641565b811461168157600080fd5b50565b6000813590506116938161166d565b92915050565b6000602082840312156116af576116ae611637565b5b60006116bd84828501611684565b91505092915050565b60008115159050919050565b6116db816116c6565b82525050565b60006020820190506116f660008301846116d2565b92915050565b600081519050919050565b600082825260208201905092915050565b60005b8381101561173657808201518184015260208101905061171b565b60008484015250505050565b6000601f19601f8301169050919050565b600061175e826116fc565b6117688185611707565b9350611778818560208601611718565b61178181611742565b840191505092915050565b600060208201905081810360008301526117a68184611753565b905092915050565b6000819050919050565b6117c1816117ae565b81146117cc57600080fd5b50565b6000813590506117de816117b8565b92915050565b6000602082840312156117fa576117f9611637565b5b6000611808848285016117cf565b91505092915050565b600073ffffffffffffffffffffffffffffffffffffffff82169050919050565b600061183c82611811565b9050919050565b61184c81611831565b82525050565b60006020820190506118676000830184611843565b92915050565b61187681611831565b811461188157600080fd5b50565b6000813590506118938161186d565b92915050565b600080604083850312156118b0576118af611637565b5b60006118be85828601611884565b92505060206118cf858286016117cf565b9150509250929050565b6000806000606084860312156118f2576118f1611637565b5b600061190086828701611884565b935050602061191186828701611884565b9250506040611922868287016117cf565b9150509250925092565b60006020828403121561194257611941611637565b5b600061195084828501611884565b91505092915050565b611962816117ae565b82525050565b600060208201905061197d6000830184611959565b92915050565b61198c816116c6565b811461199757600080fd5b50565b6000813590506119a981611983565b92915050565b600080604083850312156119c6576119c5611637565b5b60006119d485828601611884565b92505060206119e58582860161199a565b9150509250929050565b600080fd5b600080fd5b7f4e487b7100000000000000000000000000000000000000000000000000000000600052604160045260246000fd5b611a3182611742565b810181811067ffffffffffffffff82111715611a5057611a4f6119f9565b5b80604052505050565b6000611a6361162d565b9050611a6f8282611a28565b919050565b600067ffffffffffffffff821115611a8f57611a8e6119f9565b5b611a9882611742565b9050602081019050919050565b82818337600083830152505050565b6000611ac7611ac284611a74565b611a59565b905082815260208101848484011115611ae357611ae26119f4565b5b611aee848285611aa5565b509392505050565b600082601f830112611b0b57611b0a6119ef565b5b8135611b1b848260208601611ab4565b91505092915050565b60008060008060808587031215611b3e57611b3d611637565b5b6000611b4c87828801611884565b9450506020611b5d87828801611884565b9350506040611b6e878288016117cf565b925050606085013567ffffffffffffffff811115611b8f57611b8e61163c565b5b611b9b87828801611af6565b91505092959194509250565b60008060408385031215611bbe57611bbd611637565b5b6000611bcc85828601611884565b9250506020611bdd85828601611884565b9150509250929050565b7f4e487b7100000000000000000000000000000000000000000000000000000000600052602260045260246000fd5b60006002820490506001821680611c2e57607f821691505b602082108103611c4157611c40611be7565b5b50919050565b6000606082019050611c5c6000830186611843565b611c696020830185611959565b611c766040830184611843565b949350505050565b7f4e487b7100000000000000000000000000000000000000000000000000000000600052601160045260246000fd5b6000611cb8826117ae565b91507fffffffffffffffffffffffffffffffffffffffffffffffffffffffffffffffff8203611cea57611ce9611c7e565b5b600182019050919050565b600081905092915050565b6000611d0b826116fc565b611d158185611cf5565b9350611d25818560208601611718565b80840191505092915050565b6000611d3d8285611d00565b9150611d498284611d00565b91508190509392505050565b600081519050919050565b600082825260208201905092915050565b6000611d7c82611d55565b611d868185611d60565b9350611d96818560208601611718565b611d9f81611742565b840191505092915050565b6000608082019050611dbf6000830187611843565b611dcc6020830186611843565b611dd96040830185611959565b8181036060830152611deb8184611d71565b905095945050505050565b600081519050611e058161166d565b92915050565b600060208284031215611e2157611e20611637565b5b6000611e2f84828501611df6565b91505092915050565b7f4e487b7100000000000000000000000000000000000000000000000000000000600052601260045260246000fd5b6000604082019050611e7c6000830185611843565b611e896020830184611959565b939250505056fe697066732f516d635963614a4138374b7247777a58415776484c6b67724e4e7a6a686e47733478767133533278624d4e7033512fa2646970667358221220917952c2faf849a847d563e90870a96de69a87822c7bb90def22386384f60a2264736f6c634300081b0033",
  "linkReferences": {},
  "deployedLinkReferences": {}
}