{
  "_format": "hh-sol-artifact-1",
  "contractName": "MothoreFoundry",
  "sourceName": "contracts/AvengersNFTContract.sol",
  "abi": [
    {
      "inputs": [],
      "stateMutability": "nonpayable",
      "type": "constructor"
    },
    {
      "anonymous": false,
      "inputs": [
        {
          "indexed": true,
          "internalType": "address",
          "name": "owner",
          "type": "address"
        },
        {
          "indexed": true,
          "internalType": "address",
          "name": "approved",
          "type": "address"
        },
        {
          "indexed": true,
          "internalType": "uint256",
          "name": "tokenId",
          "type": "uint256"
        }
      ],
      "name": "Approval",
      "type": "event"
    },
    {
      "anonymous": false,
      "inputs": [
        {
          "indexed": true,
          "internalType": "address",
          "name": "owner",
          "type": "address"
        },
        {
          "indexed": true,
          "internalType": "address",
          "name": "operator",
          "type": "address"
        },
        {
          "indexed": false,
          "internalType": "bool",
          "name": "approved",
          "type": "bool"
        }
      ],
      "name": "ApprovalForAll",
      "type": "event"
    },
    {
      "anonymous": false,
      "inputs": [
        {
          "indexed": true,
          "internalType": "address",
          "name": "previousOwner",
          "type": "address"
        },
        {
          "indexed": true,
          "internalType": "address",
          "name": "newOwner",
          "type": "address"
        }
      ],
      "name": "OwnershipTransferred",
      "type": "event"
    },
    {
      "anonymous": false,
      "inputs": [
        {
          "indexed": true,
          "internalType": "address",
          "name": "from",
          "type": "address"
        },
        {
          "indexed": true,
          "internalType": "address",
          "name": "to",
          "type": "address"
        },
        {
          "indexed": true,
          "internalType": "uint256",
          "name": "tokenId",
          "type": "uint256"
        }
      ],
      "name": "Transfer",
      "type": "event"
    },
    {
      "inputs": [
        {
          "internalType": "address",
          "name": "to",
          "type": "address"
        },
        {
          "internalType": "uint256",
          "name": "tokenId",
          "type": "uint256"
        }
      ],
      "name": "approve",
      "outputs": [],
      "stateMutability": "nonpayable",
      "type": "function"
    },
    {
      "inputs": [
        {
          "internalType": "address",
          "name": "owner",
          "type": "address"
        }
      ],
      "name": "balanceOf",
      "outputs": [
        {
          "internalType": "uint256",
          "name": "",
          "type": "uint256"
        }
      ],
      "stateMutability": "view",
      "type": "function"
    },
    {
      "inputs": [],
      "name": "baseExtension",
      "outputs": [
        {
          "internalType": "string",
          "name": "",
          "type": "string"
        }
      ],
      "stateMutability": "view",
      "type": "function"
    },
    {
      "inputs": [],
      "name": "baseURI",
      "outputs": [
        {
          "internalType": "string",
          "name": "",
          "type": "string"
        }
      ],
      "stateMutability": "view",
      "type": "function"
    },
    {
      "inputs": [],
      "name": "cost",
      "outputs": [
        {
          "internalType": "uint256",
          "name": "",
          "type": "uint256"
        }
      ],
      "stateMutability": "view",
      "type": "function"
    },
    {
      "inputs": [
        {
          "internalType": "uint256",
          "name": "tokenId",
          "type": "uint256"
        }
      ],
      "name": "getApproved",
      "outputs": [
        {
          "internalType": "address",
          "name": "",
          "type": "address"
        }
      ],
      "stateMutability": "view",
      "type": "function"
    },
    {
      "inputs": [
        {
          "internalType": "address",
          "name": "owner",
          "type": "address"
        },
        {
          "internalType": "address",
          "name": "operator",
          "type": "address"
        }
      ],
      "name": "isApprovedForAll",
      "outputs": [
        {
          "internalType": "bool",
          "name": "",
          "type": "bool"
        }
      ],
      "stateMutability": "view",
      "type": "function"
    },
    {
      "inputs": [],
      "name": "maxMintAmount",
      "outputs": [
        {
          "internalType": "uint256",
          "name": "",
          "type": "uint256"
        }
      ],
      "stateMutability": "view",
      "type": "function"
    },
    {
      "inputs": [],
      "name": "maxSupply",
      "outputs": [
        {
          "internalType": "uint256",
          "name": "",
          "type": "uint256"
        }
      ],
      "stateMutability": "view",
      "type": "function"
    },
    {
      "inputs": [
        {
          "internalType": "address",
          "name": "_to",
          "type": "address"
        },
        {
          "internalType": "uint256",
          "name": "_mintAmount",
          "type": "uint256"
        }
      ],
      "name": "mint",
      "outputs": [],
      "stateMutability": "payable",
      "type": "function"
    },
    {
      "inputs": [],
      "name": "name",
      "outputs": [
        {
          "internalType": "string",
          "name": "",
          "type": "string"
        }
      ],
      "stateMutability": "view",
      "type": "function"
    },
    {
      "inputs": [],
      "name": "owner",
      "outputs": [
        {
          "internalType": "address",
          "name": "",
          "type": "address"
        }
      ],
      "stateMutability": "view",
      "type": "function"
    },
    {
      "inputs": [
        {
          "internalType": "uint256",
          "name": "tokenId",
          "type": "uint256"
        }
      ],
      "name": "ownerOf",
      "outputs": [
        {
          "internalType": "address",
          "name": "",
          "type": "address"
        }
      ],
      "stateMutability": "view",
      "type": "function"
    },
    {
      "inputs": [
        {
          "internalType": "bool",
          "name": "_state",
          "type": "bool"
        }
      ],
      "name": "pause",
      "outputs": [],
      "stateMutability": "nonpayable",
      "type": "function"
    },
    {
      "inputs": [],
      "name": "paused",
      "outputs": [
        {
          "internalType": "bool",
          "name": "",
          "type": "bool"
        }
      ],
      "stateMutability": "view",
      "type": "function"
    },
    {
      "inputs": [],
      "name": "renounceOwnership",
      "outputs": [],
      "stateMutability": "nonpayable",
      "type": "function"
    },
    {
      "inputs": [
        {
          "internalType": "address",
          "name": "from",
          "type": "address"
        },
        {
          "internalType": "address",
          "name": "to",
          "type": "address"
        },
        {
          "internalType": "uint256",
          "name": "tokenId",
          "type": "uint256"
        }
      ],
      "name": "safeTransferFrom",
      "outputs": [],
      "stateMutability": "nonpayable",
      "type": "function"
    },
    {
      "inputs": [
        {
          "internalType": "address",
          "name": "from",
          "type": "address"
        },
        {
          "internalType": "address",
          "name": "to",
          "type": "address"
        },
        {
          "internalType": "uint256",
          "name": "tokenId",
          "type": "uint256"
        },
        {
          "internalType": "bytes",
          "name": "_data",
          "type": "bytes"
        }
      ],
      "name": "safeTransferFrom",
      "outputs": [],
      "stateMutability": "nonpayable",
      "type": "function"
    },
    {
      "inputs": [
        {
          "internalType": "address",
          "name": "operator",
          "type": "address"
        },
        {
          "internalType": "bool",
          "name": "approved",
          "type": "bool"
        }
      ],
      "name": "setApprovalForAll",
      "outputs": [],
      "stateMutability": "nonpayable",
      "type": "function"
    },
    {
      "inputs": [
        {
          "internalType": "string",
          "name": "_newBaseExtension",
          "type": "string"
        }
      ],
      "name": "setBaseExtension",
      "outputs": [],
      "stateMutability": "nonpayable",
      "type": "function"
    },
    {
      "inputs": [
        {
          "internalType": "string",
          "name": "_newBaseURI",
          "type": "string"
        }
      ],
      "name": "setBaseURI",
      "outputs": [],
      "stateMutability": "nonpayable",
      "type": "function"
    },
    {
      "inputs": [
        {
          "internalType": "uint256",
          "name": "_newmaxMintAmount",
          "type": "uint256"
        }
      ],
      "name": "setmaxMintAmount",
      "outputs": [],
      "stateMutability": "nonpayable",
      "type": "function"
    },
    {
      "inputs": [
        {
          "internalType": "bytes4",
          "name": "interfaceId",
          "type": "bytes4"
        }
      ],
      "name": "supportsInterface",
      "outputs": [
        {
          "internalType": "bool",
          "name": "",
          "type": "bool"
        }
      ],
      "stateMutability": "view",
      "type": "function"
    },
    {
      "inputs": [],
      "name": "symbol",
      "outputs": [
        {
          "internalType": "string",
          "name": "",
          "type": "string"
        }
      ],
      "stateMutability": "view",
      "type": "function"
    },
    {
      "inputs": [
        {
          "internalType": "uint256",
          "name": "index",
          "type": "uint256"
        }
      ],
      "name": "tokenByIndex",
      "outputs": [
        {
          "internalType": "uint256",
          "name": "",
          "type": "uint256"
        }
      ],
      "stateMutability": "view",
      "type": "function"
    },
    {
      "inputs": [
        {
          "internalType": "address",
          "name": "owner",
          "type": "address"
        },
        {
          "internalType": "uint256",
          "name": "index",
          "type": "uint256"
        }
      ],
      "name": "tokenOfOwnerByIndex",
      "outputs": [
        {
          "internalType": "uint256",
          "name": "",
          "type": "uint256"
        }
      ],
      "stateMutability": "view",
      "type": "function"
    },
    {
      "inputs": [
        {
          "internalType": "uint256",
          "name": "tokenId",
          "type": "uint256"
        }
      ],
      "name": "tokenURI",
      "outputs": [
        {
          "internalType": "string",
          "name": "",
          "type": "string"
        }
      ],
      "stateMutability": "view",
      "type": "function"
    },
    {
      "inputs": [],
      "name": "totalSupply",
      "outputs": [
        {
          "internalType": "uint256",
          "name": "",
          "type": "uint256"
        }
      ],
      "stateMutability": "view",
      "type": "function"
    },
    {
      "inputs": [
        {
          "internalType": "address",
          "name": "from",
          "type": "address"
        },
        {
          "internalType": "address",
          "name": "to",
          "type": "address"
        },
        {
          "internalType": "uint256",
          "name": "tokenId",
          "type": "uint256"
        }
      ],
      "name": "transferFrom",
      "outputs": [],
      "stateMutability": "nonpayable",
      "type": "function"
    },
    {
      "inputs": [
        {
          "internalType": "address",
          "name": "newOwner",
          "type": "address"
        }
      ],
      "name": "transferOwnership",
      "outputs": [],
      "stateMutability": "nonpayable",
      "type": "function"
    },
    {
      "inputs": [
        {
          "internalType": "address",
          "name": "_owner",
          "type": "address"
        }
      ],
      "name": "walletOfOwner",
      "outputs": [
        {
          "internalType": "uint256[]",
          "name": "",
          "type": "uint256[]"
        }
      ],
      "stateMutability": "view",
      "type": "function"
    },
    {
      "inputs": [],
      "name": "withdraw",
      "outputs": [],
      "stateMutability": "payable",
      "type": "function"
    }
  ],
  "bytecode": "0x60806040526040518060400160405280600581526020017f2e6a736f6e000000000000000000000000000000000000000000000000000000815250600c90816100489190610453565b5065b5e620f48000600d556103e8600e556005600f556000601060006101000a81548160ff02191690831515021790555034801561008557600080fd5b506040518060400160405280600b81526020017f4176656e676572734e46540000000000000000000000000000000000000000008152506040518060400160405280600381526020017f41564e000000000000000000000000000000000000000000000000000000000081525081600090816101019190610453565b5080600190816101119190610453565b50505061013061012561013560201b60201c565b61013d60201b60201c565b610525565b600033905090565b6000600a60009054906101000a900473ffffffffffffffffffffffffffffffffffffffff16905081600a60006101000a81548173ffffffffffffffffffffffffffffffffffffffff021916908373ffffffffffffffffffffffffffffffffffffffff1602179055508173ffffffffffffffffffffffffffffffffffffffff168173ffffffffffffffffffffffffffffffffffffffff167f8be0079c531659141344cd1fd0a4f28419497f9722a3daafe3b4186f6b6457e060405160405180910390a35050565b600081519050919050565b7f4e487b7100000000000000000000000000000000000000000000000000000000600052604160045260246000fd5b7f4e487b7100000000000000000000000000000000000000000000000000000000600052602260045260246000fd5b6000600282049050600182168061028457607f821691505b6020821081036102975761029661023d565b5b50919050565b60008190508160005260206000209050919050565b60006020601f8301049050919050565b600082821b905092915050565b6000600883026102ff7fffffffffffffffffffffffffffffffffffffffffffffffffffffffffffffffff826102c2565b61030986836102c2565b95508019841693508086168417925050509392505050565b6000819050919050565b6000819050919050565b600061035061034b61034684610321565b61032b565b610321565b9050919050565b6000819050919050565b61036a83610335565b61037e61037682610357565b8484546102cf565b825550505050565b600090565b610393610386565b61039e818484610361565b505050565b5b818110156103c2576103b760008261038b565b6001810190506103a4565b5050565b601f821115610407576103d88161029d565b6103e1846102b2565b810160208510156103f0578190505b6104046103fc856102b2565b8301826103a3565b50505b505050565b600082821c905092915050565b600061042a6000198460080261040c565b1980831691505092915050565b60006104438383610419565b9150826002028217905092915050565b61045c82610203565b67ffffffffffffffff8111156104755761047461020e565b5b61047f825461026c565b61048a8282856103c6565b600060209050601f8311600181146104bd57600084156104ab578287015190505b6104b58582610437565b86555061051d565b601f1984166104cb8661029d565b60005b828110156104f3578489015182556001820191506020850194506020810190506104ce565b86831015610510578489015161050c601f891682610419565b8355505b6001600288020188555050505b505050505050565b6141eb806105346000396000f3fe6080604052600436106101e35760003560e01c80635c975abb11610102578063a22cb46511610095578063d5abeb0111610064578063d5abeb01146106d8578063da3ef23f14610703578063e985e9c51461072c578063f2fde38b14610769576101e3565b8063a22cb4651461061e578063b88d4fde14610647578063c668286214610670578063c87b56dd1461069b576101e3565b8063715018a6116100d1578063715018a6146105885780637f00c7a61461059f5780638da5cb5b146105c857806395d89b41146105f3576101e3565b80635c975abb146104b85780636352211e146104e35780636c0360eb1461052057806370a082311461054b576101e3565b806323b872dd1161017a57806342842e0e1161014957806342842e0e146103ec578063438b6300146104155780634f6ccce71461045257806355f804b31461048f576101e3565b806323b872dd146103605780632f745c59146103895780633ccfd60b146103c657806340c10f19146103d0576101e3565b8063095ea7b3116101b6578063095ea7b3146102b657806313faede6146102df57806318160ddd1461030a578063239c70ae14610335576101e3565b806301ffc9a7146101e857806302329a291461022557806306fdde031461024e578063081812fc14610279575b600080fd5b3480156101f457600080fd5b5061020f600480360381019061020a9190612961565b610792565b60405161021c91906129a9565b60405180910390f35b34801561023157600080fd5b5061024c600480360381019061024791906129f0565b61080c565b005b34801561025a57600080fd5b506102636108a5565b6040516102709190612aad565b60405180910390f35b34801561028557600080fd5b506102a0600480360381019061029b9190612b05565b610937565b6040516102ad9190612b73565b60405180910390f35b3480156102c257600080fd5b506102dd60048036038101906102d89190612bba565b6109bc565b005b3480156102eb57600080fd5b506102f4610ad3565b6040516103019190612c09565b60405180910390f35b34801561031657600080fd5b5061031f610ad9565b60405161032c9190612c09565b60405180910390f35b34801561034157600080fd5b5061034a610ae6565b6040516103579190612c09565b60405180910390f35b34801561036c57600080fd5b5061038760048036038101906103829190612c24565b610aec565b005b34801561039557600080fd5b506103b060048036038101906103ab9190612bba565b610b4c565b6040516103bd9190612c09565b60405180910390f35b6103ce610bf1565b005b6103ea60048036038101906103e59190612bba565b610cad565b005b3480156103f857600080fd5b50610413600480360381019061040e9190612c24565b610dcf565b005b34801561042157600080fd5b5061043c60048036038101906104379190612c77565b610def565b6040516104499190612d62565b60405180910390f35b34801561045e57600080fd5b5061047960048036038101906104749190612b05565b610e97565b6040516104869190612c09565b60405180910390f35b34801561049b57600080fd5b506104b660048036038101906104b19190612eb9565b610f08565b005b3480156104c457600080fd5b506104cd610f97565b6040516104da91906129a9565b60405180910390f35b3480156104ef57600080fd5b5061050a60048036038101906105059190612b05565b610faa565b6040516105179190612b73565b60405180910390f35b34801561052c57600080fd5b5061053561105b565b6040516105429190612aad565b60405180910390f35b34801561055757600080fd5b50610572600480360381019061056d9190612c77565b6110e9565b60405161057f9190612c09565b60405180910390f35b34801561059457600080fd5b5061059d6111a0565b005b3480156105ab57600080fd5b506105c660048036038101906105c19190612b05565b611228565b005b3480156105d457600080fd5b506105dd6112ae565b6040516105ea9190612b73565b60405180910390f35b3480156105ff57600080fd5b506106086112d8565b6040516106159190612aad565b60405180910390f35b34801561062a57600080fd5b5061064560048036038101906106409190612f02565b61136a565b005b34801561065357600080fd5b5061066e60048036038101906106699190612fe3565b6114ea565b005b34801561067c57600080fd5b5061068561154c565b6040516106929190612aad565b60405180910390f35b3480156106a757600080fd5b506106c260048036038101906106bd9190612b05565b6115da565b6040516106cf9190612aad565b60405180910390f35b3480156106e457600080fd5b506106ed611684565b6040516106fa9190612c09565b60405180910390f35b34801561070f57600080fd5b5061072a60048036038101906107259190612eb9565b61168a565b005b34801561073857600080fd5b50610753600480360381019061074e9190613066565b611719565b60405161076091906129a9565b60405180910390f35b34801561077557600080fd5b50610790600480360381019061078b9190612c77565b6117ad565b005b60007f780e9d63000000000000000000000000000000000000000000000000000000007bffffffffffffffffffffffffffffffffffffffffffffffffffffffff1916827bffffffffffffffffffffffffffffffffffffffffffffffffffffffff191614806108055750610804826118a4565b5b9050919050565b610814611986565b73ffffffffffffffffffffffffffffffffffffffff166108326112ae565b73ffffffffffffffffffffffffffffffffffffffff1614610888576040517f08c379a000000000000000000000000000000000000000000000000000000000815260040161087f906130f2565b60405180910390fd5b80601060006101000a81548160ff02191690831515021790555050565b6060600080546108b490613141565b80601f01602080910402602001604051908101604052809291908181526020018280546108e090613141565b801561092d5780601f106109025761010080835404028352916020019161092d565b820191906000526020600020905b81548152906001019060200180831161091057829003601f168201915b5050505050905090565b60006109428261198e565b610981576040517f08c379a0000000000000000000000000000000000000000000000000000000008152600401610978906131e4565b60405180910390fd5b6004600083815260200190815260200160002060009054906101000a900473ffffffffffffffffffffffffffffffffffffffff169050919050565b60006109c782610faa565b90508073ffffffffffffffffffffffffffffffffffffffff168373ffffffffffffffffffffffffffffffffffffffff1603610a37576040517f08c379a0000000000000000000000000000000000000000000000000000000008152600401610a2e90613276565b60405180910390fd5b8073ffffffffffffffffffffffffffffffffffffffff16610a56611986565b73ffffffffffffffffffffffffffffffffffffffff161480610a855750610a8481610a7f611986565b611719565b5b610ac4576040517f08c379a0000000000000000000000000000000000000000000000000000000008152600401610abb90613308565b60405180910390fd5b610ace83836119fa565b505050565b600d5481565b6000600880549050905090565b600f5481565b610afd610af7611986565b82611ab3565b610b3c576040517f08c379a0000000000000000000000000000000000000000000000000000000008152600401610b339061339a565b60405180910390fd5b610b47838383611b91565b505050565b6000610b57836110e9565b8210610b98576040517f08c379a0000000000000000000000000000000000000000000000000000000008152600401610b8f9061342c565b60405180910390fd5b600660008473ffffffffffffffffffffffffffffffffffffffff1673ffffffffffffffffffffffffffffffffffffffff168152602001908152602001600020600083815260200190815260200160002054905092915050565b610bf9611986565b73ffffffffffffffffffffffffffffffffffffffff16610c176112ae565b73ffffffffffffffffffffffffffffffffffffffff1614610c6d576040517f08c379a0000000000000000000000000000000000000000000000000000000008152600401610c64906130f2565b60405180910390fd5b3373ffffffffffffffffffffffffffffffffffffffff166108fc479081150290604051600060405180830381858888f19350505050610cab57600080fd5b565b6000610cb7610ad9565b9050601060009054906101000a900460ff1615610cd357600080fd5b60008211610ce057600080fd5b600f54821115610cef57600080fd5b600e548282610cfe919061347b565b1115610d0957600080fd5b610d116112ae565b73ffffffffffffffffffffffffffffffffffffffff163373ffffffffffffffffffffffffffffffffffffffff1614610d935781600d54610d5191906134af565b3414610d92576040517f08c379a0000000000000000000000000000000000000000000000000000000008152600401610d899061353d565b60405180910390fd5b5b6000600190505b828111610dc957610db6848284610db1919061347b565b611dec565b8080610dc19061355d565b915050610d9a565b50505050565b610dea838383604051806020016040528060008152506114ea565b505050565b60606000610dfc836110e9565b905060008167ffffffffffffffff811115610e1a57610e19612d8e565b5b604051908082528060200260200182016040528015610e485781602001602082028036833780820191505090505b50905060005b82811015610e8c57610e608582610b4c565b828281518110610e7357610e726135a5565b5b6020026020010181815250508080600101915050610e4e565b508092505050919050565b6000610ea1610ad9565b8210610ee2576040517f08c379a0000000000000000000000000000000000000000000000000000000008152600401610ed990613646565b60405180910390fd5b60088281548110610ef657610ef56135a5565b5b90600052602060002001549050919050565b610f10611986565b73ffffffffffffffffffffffffffffffffffffffff16610f2e6112ae565b73ffffffffffffffffffffffffffffffffffffffff1614610f84576040517f08c379a0000000000000000000000000000000000000000000000000000000008152600401610f7b906130f2565b60405180910390fd5b80600b9081610f939190613812565b5050565b601060009054906101000a900460ff1681565b6000806002600084815260200190815260200160002060009054906101000a900473ffffffffffffffffffffffffffffffffffffffff169050600073ffffffffffffffffffffffffffffffffffffffff168173ffffffffffffffffffffffffffffffffffffffff1603611052576040517f08c379a000000000000000000000000000000000000000000000000000000000815260040161104990613956565b60405180910390fd5b80915050919050565b600b805461106890613141565b80601f016020809104026020016040519081016040528092919081815260200182805461109490613141565b80156110e15780601f106110b6576101008083540402835291602001916110e1565b820191906000526020600020905b8154815290600101906020018083116110c457829003601f168201915b505050505081565b60008073ffffffffffffffffffffffffffffffffffffffff168273ffffffffffffffffffffffffffffffffffffffff1603611159576040517f08c379a0000000000000000000000000000000000000000000000000000000008152600401611150906139e8565b60405180910390fd5b600360008373ffffffffffffffffffffffffffffffffffffffff1673ffffffffffffffffffffffffffffffffffffffff168152602001908152602001600020549050919050565b6111a8611986565b73ffffffffffffffffffffffffffffffffffffffff166111c66112ae565b73ffffffffffffffffffffffffffffffffffffffff161461121c576040517f08c379a0000000000000000000000000000000000000000000000000000000008152600401611213906130f2565b60405180910390fd5b6112266000611e0a565b565b611230611986565b73ffffffffffffffffffffffffffffffffffffffff1661124e6112ae565b73ffffffffffffffffffffffffffffffffffffffff16146112a4576040517f08c379a000000000000000000000000000000000000000000000000000000000815260040161129b906130f2565b60405180910390fd5b80600f8190555050565b6000600a60009054906101000a900473ffffffffffffffffffffffffffffffffffffffff16905090565b6060600180546112e790613141565b80601f016020809104026020016040519081016040528092919081815260200182805461131390613141565b80156113605780601f1061133557610100808354040283529160200191611360565b820191906000526020600020905b81548152906001019060200180831161134357829003601f168201915b5050505050905090565b611372611986565b73ffffffffffffffffffffffffffffffffffffffff168273ffffffffffffffffffffffffffffffffffffffff16036113df576040517f08c379a00000000000000000000000000000000000000000000000000000000081526004016113d690613a54565b60405180910390fd5b80600560006113ec611986565b73ffffffffffffffffffffffffffffffffffffffff1673ffffffffffffffffffffffffffffffffffffffff16815260200190815260200160002060008473ffffffffffffffffffffffffffffffffffffffff1673ffffffffffffffffffffffffffffffffffffffff16815260200190815260200160002060006101000a81548160ff0219169083151502179055508173ffffffffffffffffffffffffffffffffffffffff16611499611986565b73ffffffffffffffffffffffffffffffffffffffff167f17307eab39ab6107e8899845ad3d59bd9653f200f220920489ca2b5937696c31836040516114de91906129a9565b60405180910390a35050565b6114fb6114f5611986565b83611ab3565b61153a576040517f08c379a00000000000000000000000000000000000000000000000000000000081526004016115319061339a565b60405180910390fd5b61154684848484611ed0565b50505050565b600c805461155990613141565b80601f016020809104026020016040519081016040528092919081815260200182805461158590613141565b80156115d25780601f106115a7576101008083540402835291602001916115d2565b820191906000526020600020905b8154815290600101906020018083116115b557829003601f168201915b505050505081565b60606115e58261198e565b611624576040517f08c379a000000000000000000000000000000000000000000000000000000000815260040161161b90613ae6565b60405180910390fd5b600061162e611f2c565b9050600081511161164e576040518060200160405280600081525061167c565b8061165884611f4c565b600c60405160200161166c93929190613bc5565b6040516020818303038152906040525b915050919050565b600e5481565b611692611986565b73ffffffffffffffffffffffffffffffffffffffff166116b06112ae565b73ffffffffffffffffffffffffffffffffffffffff1614611706576040517f08c379a00000000000000000000000000000000000000000000000000000000081526004016116fd906130f2565b60405180910390fd5b80600c90816117159190613812565b5050565b6000600560008473ffffffffffffffffffffffffffffffffffffffff1673ffffffffffffffffffffffffffffffffffffffff16815260200190815260200160002060008373ffffffffffffffffffffffffffffffffffffffff1673ffffffffffffffffffffffffffffffffffffffff16815260200190815260200160002060009054906101000a900460ff16905092915050565b6117b5611986565b73ffffffffffffffffffffffffffffffffffffffff166117d36112ae565b73ffffffffffffffffffffffffffffffffffffffff1614611829576040517f08c379a0000000000000000000000000000000000000000000000000000000008152600401611820906130f2565b60405180910390fd5b600073ffffffffffffffffffffffffffffffffffffffff168173ffffffffffffffffffffffffffffffffffffffff1603611898576040517f08c379a000000000000000000000000000000000000000000000000000000000815260040161188f90613c68565b60405180910390fd5b6118a181611e0a565b50565b60007f80ac58cd000000000000000000000000000000000000000000000000000000007bffffffffffffffffffffffffffffffffffffffffffffffffffffffff1916827bffffffffffffffffffffffffffffffffffffffffffffffffffffffff1916148061196f57507f5b5e139f000000000000000000000000000000000000000000000000000000007bffffffffffffffffffffffffffffffffffffffffffffffffffffffff1916827bffffffffffffffffffffffffffffffffffffffffffffffffffffffff1916145b8061197f575061197e826120ac565b5b9050919050565b600033905090565b60008073ffffffffffffffffffffffffffffffffffffffff166002600084815260200190815260200160002060009054906101000a900473ffffffffffffffffffffffffffffffffffffffff1673ffffffffffffffffffffffffffffffffffffffff1614159050919050565b816004600083815260200190815260200160002060006101000a81548173ffffffffffffffffffffffffffffffffffffffff021916908373ffffffffffffffffffffffffffffffffffffffff160217905550808273ffffffffffffffffffffffffffffffffffffffff16611a6d83610faa565b73ffffffffffffffffffffffffffffffffffffffff167f8c5be1e5ebec7d5bd14f71427d1e84f3dd0314c0f7b2291e5b200ac8c7c3b92560405160405180910390a45050565b6000611abe8261198e565b611afd576040517f08c379a0000000000000000000000000000000000000000000000000000000008152600401611af490613cfa565b60405180910390fd5b6000611b0883610faa565b90508073ffffffffffffffffffffffffffffffffffffffff168473ffffffffffffffffffffffffffffffffffffffff161480611b7757508373ffffffffffffffffffffffffffffffffffffffff16611b5f84610937565b73ffffffffffffffffffffffffffffffffffffffff16145b80611b885750611b878185611719565b5b91505092915050565b8273ffffffffffffffffffffffffffffffffffffffff16611bb182610faa565b73ffffffffffffffffffffffffffffffffffffffff1614611c07576040517f08c379a0000000000000000000000000000000000000000000000000000000008152600401611bfe90613d8c565b60405180910390fd5b600073ffffffffffffffffffffffffffffffffffffffff168273ffffffffffffffffffffffffffffffffffffffff1603611c76576040517f08c379a0000000000000000000000000000000000000000000000000000000008152600401611c6d90613e1e565b60405180910390fd5b611c81838383612116565b611c8c6000826119fa565b6001600360008573ffffffffffffffffffffffffffffffffffffffff1673ffffffffffffffffffffffffffffffffffffffff1681526020019081526020016000206000828254611cdc9190613e3e565b925050819055506001600360008473ffffffffffffffffffffffffffffffffffffffff1673ffffffffffffffffffffffffffffffffffffffff1681526020019081526020016000206000828254611d33919061347b565b92505081905550816002600083815260200190815260200160002060006101000a81548173ffffffffffffffffffffffffffffffffffffffff021916908373ffffffffffffffffffffffffffffffffffffffff160217905550808273ffffffffffffffffffffffffffffffffffffffff168473ffffffffffffffffffffffffffffffffffffffff167fddf252ad1be2c89b69c2b068fc378daa952ba7f163c4a11628f55a4df523b3ef60405160405180910390a4505050565b611e06828260405180602001604052806000815250612228565b5050565b6000600a60009054906101000a900473ffffffffffffffffffffffffffffffffffffffff16905081600a60006101000a81548173ffffffffffffffffffffffffffffffffffffffff021916908373ffffffffffffffffffffffffffffffffffffffff1602179055508173ffffffffffffffffffffffffffffffffffffffff168173ffffffffffffffffffffffffffffffffffffffff167f8be0079c531659141344cd1fd0a4f28419497f9722a3daafe3b4186f6b6457e060405160405180910390a35050565b611edb848484611b91565b611ee784848484612283565b611f26576040517f08c379a0000000000000000000000000000000000000000000000000000000008152600401611f1d90613ee4565b60405180910390fd5b50505050565b606060405180606001604052806036815260200161418060369139905090565b606060008203611f93576040518060400160405280600181526020017f300000000000000000000000000000000000000000000000000000000000000081525090506120a7565b600082905060005b60008214611fc5578080611fae9061355d565b915050600a82611fbe9190613f33565b9150611f9b565b60008167ffffffffffffffff811115611fe157611fe0612d8e565b5b6040519080825280601f01601f1916602001820160405280156120135781602001600182028036833780820191505090505b5090505b600085146120a05760018261202c9190613e3e565b9150600a8561203b9190613f64565b6030612047919061347b565b60f81b81838151811061205d5761205c6135a5565b5b60200101907effffffffffffffffffffffffffffffffffffffffffffffffffffffffffffff1916908160001a905350600a856120999190613f33565b9450612017565b8093505050505b919050565b60007f01ffc9a7000000000000000000000000000000000000000000000000000000007bffffffffffffffffffffffffffffffffffffffffffffffffffffffff1916827bffffffffffffffffffffffffffffffffffffffffffffffffffffffff1916149050919050565b61212183838361240a565b600073ffffffffffffffffffffffffffffffffffffffff168373ffffffffffffffffffffffffffffffffffffffff16036121635761215e8161240f565b6121a2565b8173ffffffffffffffffffffffffffffffffffffffff168373ffffffffffffffffffffffffffffffffffffffff16146121a1576121a08382612458565b5b5b600073ffffffffffffffffffffffffffffffffffffffff168273ffffffffffffffffffffffffffffffffffffffff16036121e4576121df816125c5565b612223565b8273ffffffffffffffffffffffffffffffffffffffff168273ffffffffffffffffffffffffffffffffffffffff1614612222576122218282612696565b5b5b505050565b6122328383612715565b61223f6000848484612283565b61227e576040517f08c379a000000000000000000000000000000000000000000000000000000000815260040161227590613ee4565b60405180910390fd5b505050565b60006122a48473ffffffffffffffffffffffffffffffffffffffff166128e2565b156123fd578373ffffffffffffffffffffffffffffffffffffffff1663150b7a026122cd611986565b8786866040518563ffffffff1660e01b81526004016122ef9493929190613fea565b6020604051808303816000875af192505050801561232b57506040513d601f19601f82011682018060405250810190612328919061404b565b60015b6123ad573d806000811461235b576040519150601f19603f3d011682016040523d82523d6000602084013e612360565b606091505b5060008151036123a5576040517f08c379a000000000000000000000000000000000000000000000000000000000815260040161239c90613ee4565b60405180910390fd5b805181602001fd5b63150b7a0260e01b7bffffffffffffffffffffffffffffffffffffffffffffffffffffffff1916817bffffffffffffffffffffffffffffffffffffffffffffffffffffffff191614915050612402565b600190505b949350505050565b505050565b6008805490506009600083815260200190815260200160002081905550600881908060018154018082558091505060019003906000526020600020016000909190919091505550565b60006001612465846110e9565b61246f9190613e3e565b9050600060076000848152602001908152602001600020549050818114612554576000600660008673ffffffffffffffffffffffffffffffffffffffff1673ffffffffffffffffffffffffffffffffffffffff168152602001908152602001600020600084815260200190815260200160002054905080600660008773ffffffffffffffffffffffffffffffffffffffff1673ffffffffffffffffffffffffffffffffffffffff168152602001908152602001600020600084815260200190815260200160002081905550816007600083815260200190815260200160002081905550505b6007600084815260200190815260200160002060009055600660008573ffffffffffffffffffffffffffffffffffffffff1673ffffffffffffffffffffffffffffffffffffffff16815260200190815260200160002060008381526020019081526020016000206000905550505050565b600060016008805490506125d99190613e3e565b9050600060096000848152602001908152602001600020549050600060088381548110612609576126086135a5565b5b90600052602060002001549050806008838154811061262b5761262a6135a5565b5b90600052602060002001819055508160096000838152602001908152602001600020819055506009600085815260200190815260200160002060009055600880548061267a57612679614078565b5b6001900381819060005260206000200160009055905550505050565b60006126a1836110e9565b905081600660008573ffffffffffffffffffffffffffffffffffffffff1673ffffffffffffffffffffffffffffffffffffffff168152602001908152602001600020600083815260200190815260200160002081905550806007600084815260200190815260200160002081905550505050565b600073ffffffffffffffffffffffffffffffffffffffff168273ffffffffffffffffffffffffffffffffffffffff1603612784576040517f08c379a000000000000000000000000000000000000000000000000000000000815260040161277b906140f3565b60405180910390fd5b61278d8161198e565b156127cd576040517f08c379a00000000000000000000000000000000000000000000000000000000081526004016127c49061415f565b60405180910390fd5b6127d960008383612116565b6001600360008473ffffffffffffffffffffffffffffffffffffffff1673ffffffffffffffffffffffffffffffffffffffff1681526020019081526020016000206000828254612829919061347b565b92505081905550816002600083815260200190815260200160002060006101000a81548173ffffffffffffffffffffffffffffffffffffffff021916908373ffffffffffffffffffffffffffffffffffffffff160217905550808273ffffffffffffffffffffffffffffffffffffffff16600073ffffffffffffffffffffffffffffffffffffffff167fddf252ad1be2c89b69c2b068fc378daa952ba7f163c4a11628f55a4df523b3ef60405160405180910390a45050565b600080823b905060008111915050919050565b6000604051905090565b600080fd5b600080fd5b60007fffffffff0000000000000000000000000000000000000000000000000000000082169050919050565b61293e81612909565b811461294957600080fd5b50565b60008135905061295b81612935565b92915050565b600060208284031215612977576129766128ff565b5b60006129858482850161294c565b91505092915050565b60008115159050919050565b6129a38161298e565b82525050565b60006020820190506129be600083018461299a565b92915050565b6129cd8161298e565b81146129d857600080fd5b50565b6000813590506129ea816129c4565b92915050565b600060208284031215612a0657612a056128ff565b5b6000612a14848285016129db565b91505092915050565b600081519050919050565b600082825260208201905092915050565b60005b83811015612a57578082015181840152602081019050612a3c565b60008484015250505050565b6000601f19601f8301169050919050565b6000612a7f82612a1d565b612a898185612a28565b9350612a99818560208601612a39565b612aa281612a63565b840191505092915050565b60006020820190508181036000830152612ac78184612a74565b905092915050565b6000819050919050565b612ae281612acf565b8114612aed57600080fd5b50565b600081359050612aff81612ad9565b92915050565b600060208284031215612b1b57612b1a6128ff565b5b6000612b2984828501612af0565b91505092915050565b600073ffffffffffffffffffffffffffffffffffffffff82169050919050565b6000612b5d82612b32565b9050919050565b612b6d81612b52565b82525050565b6000602082019050612b886000830184612b64565b92915050565b612b9781612b52565b8114612ba257600080fd5b50565b600081359050612bb481612b8e565b92915050565b60008060408385031215612bd157612bd06128ff565b5b6000612bdf85828601612ba5565b9250506020612bf085828601612af0565b9150509250929050565b612c0381612acf565b82525050565b6000602082019050612c1e6000830184612bfa565b92915050565b600080600060608486031215612c3d57612c3c6128ff565b5b6000612c4b86828701612ba5565b9350506020612c5c86828701612ba5565b9250506040612c6d86828701612af0565b9150509250925092565b600060208284031215612c8d57612c8c6128ff565b5b6000612c9b84828501612ba5565b91505092915050565b600081519050919050565b600082825260208201905092915050565b6000819050602082019050919050565b612cd981612acf565b82525050565b6000612ceb8383612cd0565b60208301905092915050565b6000602082019050919050565b6000612d0f82612ca4565b612d198185612caf565b9350612d2483612cc0565b8060005b83811015612d55578151612d3c8882612cdf565b9750612d4783612cf7565b925050600181019050612d28565b5085935050505092915050565b60006020820190508181036000830152612d7c8184612d04565b905092915050565b600080fd5b600080fd5b7f4e487b7100000000000000000000000000000000000000000000000000000000600052604160045260246000fd5b612dc682612a63565b810181811067ffffffffffffffff82111715612de557612de4612d8e565b5b80604052505050565b6000612df86128f5565b9050612e048282612dbd565b919050565b600067ffffffffffffffff821115612e2457612e23612d8e565b5b612e2d82612a63565b9050602081019050919050565b82818337600083830152505050565b6000612e5c612e5784612e09565b612dee565b905082815260208101848484011115612e7857612e77612d89565b5b612e83848285612e3a565b509392505050565b600082601f830112612ea057612e9f612d84565b5b8135612eb0848260208601612e49565b91505092915050565b600060208284031215612ecf57612ece6128ff565b5b600082013567ffffffffffffffff811115612eed57612eec612904565b5b612ef984828501612e8b565b91505092915050565b60008060408385031215612f1957612f186128ff565b5b6000612f2785828601612ba5565b9250506020612f38858286016129db565b9150509250929050565b600067ffffffffffffffff821115612f5d57612f5c612d8e565b5b612f6682612a63565b9050602081019050919050565b6000612f86612f8184612f42565b612dee565b905082815260208101848484011115612fa257612fa1612d89565b5b612fad848285612e3a565b509392505050565b600082601f830112612fca57612fc9612d84565b5b8135612fda848260208601612f73565b91505092915050565b60008060008060808587031215612ffd57612ffc6128ff565b5b600061300b87828801612ba5565b945050602061301c87828801612ba5565b935050604061302d87828801612af0565b925050606085013567ffffffffffffffff81111561304e5761304d612904565b5b61305a87828801612fb5565b91505092959194509250565b6000806040838503121561307d5761307c6128ff565b5b600061308b85828601612ba5565b925050602061309c85828601612ba5565b9150509250929050565b7f4f776e61626c653a2063616c6c6572206973206e6f7420746865206f776e6572600082015250565b60006130dc602083612a28565b91506130e7826130a6565b602082019050919050565b6000602082019050818103600083015261310b816130cf565b9050919050565b7f4e487b7100000000000000000000000000000000000000000000000000000000600052602260045260246000fd5b6000600282049050600182168061315957607f821691505b60208210810361316c5761316b613112565b5b50919050565b7f4552433732313a20617070726f76656420717565727920666f72206e6f6e657860008201527f697374656e7420746f6b656e0000000000000000000000000000000000000000602082015250565b60006131ce602c83612a28565b91506131d982613172565b604082019050919050565b600060208201905081810360008301526131fd816131c1565b9050919050565b7f4552433732313a20617070726f76616c20746f2063757272656e74206f776e6560008201527f7200000000000000000000000000000000000000000000000000000000000000602082015250565b6000613260602183612a28565b915061326b82613204565b604082019050919050565b6000602082019050818103600083015261328f81613253565b9050919050565b7f4552433732313a20617070726f76652063616c6c6572206973206e6f74206f7760008201527f6e6572206e6f7220617070726f76656420666f7220616c6c0000000000000000602082015250565b60006132f2603883612a28565b91506132fd82613296565b604082019050919050565b60006020820190508181036000830152613321816132e5565b9050919050565b7f4552433732313a207472616e736665722063616c6c6572206973206e6f74206f60008201527f776e6572206e6f7220617070726f766564000000000000000000000000000000602082015250565b6000613384603183612a28565b915061338f82613328565b604082019050919050565b600060208201905081810360008301526133b381613377565b9050919050565b7f455243373231456e756d657261626c653a206f776e657220696e646578206f7560008201527f74206f6620626f756e6473000000000000000000000000000000000000000000602082015250565b6000613416602b83612a28565b9150613421826133ba565b604082019050919050565b6000602082019050818103600083015261344581613409565b9050919050565b7f4e487b7100000000000000000000000000000000000000000000000000000000600052601160045260246000fd5b600061348682612acf565b915061349183612acf565b92508282019050808211156134a9576134a861344c565b5b92915050565b60006134ba82612acf565b91506134c583612acf565b92508282026134d381612acf565b915082820484148315176134ea576134e961344c565b5b5092915050565b7f4e65656420746f2073656e6420302e3030332065746865722100000000000000600082015250565b6000613527601983612a28565b9150613532826134f1565b602082019050919050565b600060208201905081810360008301526135568161351a565b9050919050565b600061356882612acf565b91507fffffffffffffffffffffffffffffffffffffffffffffffffffffffffffffffff820361359a5761359961344c565b5b600182019050919050565b7f4e487b7100000000000000000000000000000000000000000000000000000000600052603260045260246000fd5b7f455243373231456e756d657261626c653a20676c6f62616c20696e646578206f60008201527f7574206f6620626f756e64730000000000000000000000000000000000000000602082015250565b6000613630602c83612a28565b915061363b826135d4565b604082019050919050565b6000602082019050818103600083015261365f81613623565b9050919050565b60008190508160005260206000209050919050565b60006020601f8301049050919050565b600082821b905092915050565b6000600883026136c87fffffffffffffffffffffffffffffffffffffffffffffffffffffffffffffffff8261368b565b6136d2868361368b565b95508019841693508086168417925050509392505050565b6000819050919050565b600061370f61370a61370584612acf565b6136ea565b612acf565b9050919050565b6000819050919050565b613729836136f4565b61373d61373582613716565b848454613698565b825550505050565b600090565b613752613745565b61375d818484613720565b505050565b5b818110156137815761377660008261374a565b600181019050613763565b5050565b601f8211156137c65761379781613666565b6137a08461367b565b810160208510156137af578190505b6137c36137bb8561367b565b830182613762565b50505b505050565b600082821c905092915050565b60006137e9600019846008026137cb565b1980831691505092915050565b600061380283836137d8565b9150826002028217905092915050565b61381b82612a1d565b67ffffffffffffffff81111561383457613833612d8e565b5b61383e8254613141565b613849828285613785565b600060209050601f83116001811461387c576000841561386a578287015190505b61387485826137f6565b8655506138dc565b601f19841661388a86613666565b60005b828110156138b25784890151825560018201915060208501945060208101905061388d565b868310156138cf57848901516138cb601f8916826137d8565b8355505b6001600288020188555050505b505050505050565b7f4552433732313a206f776e657220717565727920666f72206e6f6e657869737460008201527f656e7420746f6b656e0000000000000000000000000000000000000000000000602082015250565b6000613940602983612a28565b915061394b826138e4565b604082019050919050565b6000602082019050818103600083015261396f81613933565b9050919050565b7f4552433732313a2062616c616e636520717565727920666f7220746865207a6560008201527f726f206164647265737300000000000000000000000000000000000000000000602082015250565b60006139d2602a83612a28565b91506139dd82613976565b604082019050919050565b60006020820190508181036000830152613a01816139c5565b9050919050565b7f4552433732313a20617070726f766520746f2063616c6c657200000000000000600082015250565b6000613a3e601983612a28565b9150613a4982613a08565b602082019050919050565b60006020820190508181036000830152613a6d81613a31565b9050919050565b7f4552433732314d657461646174613a2055524920717565727920666f72206e6f60008201527f6e6578697374656e7420746f6b656e0000000000000000000000000000000000602082015250565b6000613ad0602f83612a28565b9150613adb82613a74565b604082019050919050565b60006020820190508181036000830152613aff81613ac3565b9050919050565b600081905092915050565b6000613b1c82612a1d565b613b268185613b06565b9350613b36818560208601612a39565b80840191505092915050565b60008154613b4f81613141565b613b598186613b06565b94506001821660008114613b745760018114613b8957613bbc565b60ff1983168652811515820286019350613bbc565b613b9285613666565b60005b83811015613bb457815481890152600182019150602081019050613b95565b838801955050505b50505092915050565b6000613bd18286613b11565b9150613bdd8285613b11565b9150613be98284613b42565b9150819050949350505050565b7f4f776e61626c653a206e6577206f776e657220697320746865207a65726f206160008201527f6464726573730000000000000000000000000000000000000000000000000000602082015250565b6000613c52602683612a28565b9150613c5d82613bf6565b604082019050919050565b60006020820190508181036000830152613c8181613c45565b9050919050565b7f4552433732313a206f70657261746f7220717565727920666f72206e6f6e657860008201527f697374656e7420746f6b656e0000000000000000000000000000000000000000602082015250565b6000613ce4602c83612a28565b9150613cef82613c88565b604082019050919050565b60006020820190508181036000830152613d1381613cd7565b9050919050565b7f4552433732313a207472616e73666572206f6620746f6b656e2074686174206960008201527f73206e6f74206f776e0000000000000000000000000000000000000000000000602082015250565b6000613d76602983612a28565b9150613d8182613d1a565b604082019050919050565b60006020820190508181036000830152613da581613d69565b9050919050565b7f4552433732313a207472616e7366657220746f20746865207a65726f2061646460008201527f7265737300000000000000000000000000000000000000000000000000000000602082015250565b6000613e08602483612a28565b9150613e1382613dac565b604082019050919050565b60006020820190508181036000830152613e3781613dfb565b9050919050565b6000613e4982612acf565b9150613e5483612acf565b9250828203905081811115613e6c57613e6b61344c565b5b92915050565b7f4552433732313a207472616e7366657220746f206e6f6e20455243373231526560008201527f63656976657220696d706c656d656e7465720000000000000000000000000000602082015250565b6000613ece603283612a28565b9150613ed982613e72565b604082019050919050565b60006020820190508181036000830152613efd81613ec1565b9050919050565b7f4e487b7100000000000000000000000000000000000000000000000000000000600052601260045260246000fd5b6000613f3e82612acf565b9150613f4983612acf565b925082613f5957613f58613f04565b5b828204905092915050565b6000613f6f82612acf565b9150613f7a83612acf565b925082613f8a57613f89613f04565b5b828206905092915050565b600081519050919050565b600082825260208201905092915050565b6000613fbc82613f95565b613fc68185613fa0565b9350613fd6818560208601612a39565b613fdf81612a63565b840191505092915050565b6000608082019050613fff6000830187612b64565b61400c6020830186612b64565b6140196040830185612bfa565b818103606083015261402b8184613fb1565b905095945050505050565b60008151905061404581612935565b92915050565b600060208284031215614061576140606128ff565b5b600061406f84828501614036565b91505092915050565b7f4e487b7100000000000000000000000000000000000000000000000000000000600052603160045260246000fd5b7f4552433732313a206d696e7420746f20746865207a65726f2061646472657373600082015250565b60006140dd602083612a28565b91506140e8826140a7565b602082019050919050565b6000602082019050818103600083015261410c816140d0565b9050919050565b7f4552433732313a20746f6b656e20616c7265616479206d696e74656400000000600082015250565b6000614149601c83612a28565b915061415482614113565b602082019050919050565b600060208201905081810360008301526141788161413c565b905091905056fe697066733a2f2f516d56357273703579423731344e36477645687a4b5a3462324e6e63536132575170476d6d5854576f6b345938612fa26469706673582212202aee444650a75f160cb5fd02b048e2b125c7cb9c32f8aa4278657adcbdb3c61964736f6c634300081b0033",
  "linkReferences": {},
  "deployedLinkReferences": {}
}