{
  "_format": "hh-sol-artifact-1",
  "contractName": "AvengersNFT",
  "sourceName": "contracts/AvengersNFT.sol",
  "abi": [
    {
      "inputs": [
        {
          "internalType": "string",
          "name": "baseURI",
          "type": "string"
        }
      ],
      "stateMutability": "nonpayable",
      "type": "constructor"
    },
    {
      "inputs": [],
      "name": "ERC721EnumerableForbiddenBatchMint",
      "type": "error"
    },
    {
      "inputs": [
        {
          "internalType": "address",
          "name": "sender",
          "type": "address"
        },
        {
          "internalType": "uint256",
          "name": "tokenId",
          "type": "uint256"
        },
        {
          "internalType": "address",
          "name": "owner",
          "type": "address"
        }
      ],
      "name": "ERC721IncorrectOwner",
      "type": "error"
    },
    {
      "inputs": [
        {
          "internalType": "address",
          "name": "operator",
          "type": "address"
        },
        {
          "internalType": "uint256",
          "name": "tokenId",
          "type": "uint256"
        }
      ],
      "name": "ERC721InsufficientApproval",
      "type": "error"
    },
    {
      "inputs": [
        {
          "internalType": "address",
          "name": "approver",
          "type": "address"
        }
      ],
      "name": "ERC721InvalidApprover",
      "type": "error"
    },
    {
      "inputs": [
        {
          "internalType": "address",
          "name": "operator",
          "type": "address"
        }
      ],
      "name": "ERC721InvalidOperator",
      "type": "error"
    },
    {
      "inputs": [
        {
          "internalType": "address",
          "name": "owner",
          "type": "address"
        }
      ],
      "name": "ERC721InvalidOwner",
      "type": "error"
    },
    {
      "inputs": [
        {
          "internalType": "address",
          "name": "receiver",
          "type": "address"
        }
      ],
      "name": "ERC721InvalidReceiver",
      "type": "error"
    },
    {
      "inputs": [
        {
          "internalType": "address",
          "name": "sender",
          "type": "address"
        }
      ],
      "name": "ERC721InvalidSender",
      "type": "error"
    },
    {
      "inputs": [
        {
          "internalType": "uint256",
          "name": "tokenId",
          "type": "uint256"
        }
      ],
      "name": "ERC721NonexistentToken",
      "type": "error"
    },
    {
      "inputs": [
        {
          "internalType": "address",
          "name": "owner",
          "type": "address"
        },
        {
          "internalType": "uint256",
          "name": "index",
          "type": "uint256"
        }
      ],
      "name": "ERC721OutOfBoundsIndex",
      "type": "error"
    },
    {
      "anonymous": false,
      "inputs": [
        {
          "indexed": true,
          "internalType": "address",
          "name": "owner",
          "type": "address"
        },
        {
          "indexed": true,
          "internalType": "address",
          "name": "approved",
          "type": "address"
        },
        {
          "indexed": true,
          "internalType": "uint256",
          "name": "tokenId",
          "type": "uint256"
        }
      ],
      "name": "Approval",
      "type": "event"
    },
    {
      "anonymous": false,
      "inputs": [
        {
          "indexed": true,
          "internalType": "address",
          "name": "owner",
          "type": "address"
        },
        {
          "indexed": true,
          "internalType": "address",
          "name": "operator",
          "type": "address"
        },
        {
          "indexed": false,
          "internalType": "bool",
          "name": "approved",
          "type": "bool"
        }
      ],
      "name": "ApprovalForAll",
      "type": "event"
    },
    {
      "anonymous": false,
      "inputs": [
        {
          "indexed": true,
          "internalType": "address",
          "name": "from",
          "type": "address"
        },
        {
          "indexed": true,
          "internalType": "address",
          "name": "to",
          "type": "address"
        },
        {
          "indexed": true,
          "internalType": "uint256",
          "name": "tokenId",
          "type": "uint256"
        }
      ],
      "name": "Transfer",
      "type": "event"
    },
    {
      "inputs": [],
      "name": "MAX_PER_WALLET",
      "outputs": [
        {
          "internalType": "uint256",
          "name": "",
          "type": "uint256"
        }
      ],
      "stateMutability": "view",
      "type": "function"
    },
    {
      "inputs": [],
      "name": "MAX_SUPPLY",
      "outputs": [
        {
          "internalType": "uint256",
          "name": "",
          "type": "uint256"
        }
      ],
      "stateMutability": "view",
      "type": "function"
    },
    {
      "inputs": [],
      "name": "PRICE",
      "outputs": [
        {
          "internalType": "uint256",
          "name": "",
          "type": "uint256"
        }
      ],
      "stateMutability": "view",
      "type": "function"
    },
    {
      "inputs": [
        {
          "internalType": "address",
          "name": "to",
          "type": "address"
        },
        {
          "internalType": "uint256",
          "name": "tokenId",
          "type": "uint256"
        }
      ],
      "name": "approve",
      "outputs": [],
      "stateMutability": "nonpayable",
      "type": "function"
    },
    {
      "inputs": [
        {
          "internalType": "address",
          "name": "owner",
          "type": "address"
        }
      ],
      "name": "balanceOf",
      "outputs": [
        {
          "internalType": "uint256",
          "name": "",
          "type": "uint256"
        }
      ],
      "stateMutability": "view",
      "type": "function"
    },
    {
      "inputs": [
        {
          "internalType": "uint256",
          "name": "tokenId",
          "type": "uint256"
        }
      ],
      "name": "getApproved",
      "outputs": [
        {
          "internalType": "address",
          "name": "",
          "type": "address"
        }
      ],
      "stateMutability": "view",
      "type": "function"
    },
    {
      "inputs": [
        {
          "internalType": "address",
          "name": "owner",
          "type": "address"
        },
        {
          "internalType": "address",
          "name": "operator",
          "type": "address"
        }
      ],
      "name": "isApprovedForAll",
      "outputs": [
        {
          "internalType": "bool",
          "name": "",
          "type": "bool"
        }
      ],
      "stateMutability": "view",
      "type": "function"
    },
    {
      "inputs": [
        {
          "internalType": "uint256",
          "name": "_amount",
          "type": "uint256"
        }
      ],
      "name": "mint",
      "outputs": [],
      "stateMutability": "payable",
      "type": "function"
    },
    {
      "inputs": [],
      "name": "name",
      "outputs": [
        {
          "internalType": "string",
          "name": "",
          "type": "string"
        }
      ],
      "stateMutability": "view",
      "type": "function"
    },
    {
      "inputs": [
        {
          "internalType": "uint256",
          "name": "tokenId",
          "type": "uint256"
        }
      ],
      "name": "ownerOf",
      "outputs": [
        {
          "internalType": "address",
          "name": "",
          "type": "address"
        }
      ],
      "stateMutability": "view",
      "type": "function"
    },
    {
      "inputs": [
        {
          "internalType": "address",
          "name": "from",
          "type": "address"
        },
        {
          "internalType": "address",
          "name": "to",
          "type": "address"
        },
        {
          "internalType": "uint256",
          "name": "tokenId",
          "type": "uint256"
        }
      ],
      "name": "safeTransferFrom",
      "outputs": [],
      "stateMutability": "nonpayable",
      "type": "function"
    },
    {
      "inputs": [
        {
          "internalType": "address",
          "name": "from",
          "type": "address"
        },
        {
          "internalType": "address",
          "name": "to",
          "type": "address"
        },
        {
          "internalType": "uint256",
          "name": "tokenId",
          "type": "uint256"
        },
        {
          "internalType": "bytes",
          "name": "data",
          "type": "bytes"
        }
      ],
      "name": "safeTransferFrom",
      "outputs": [],
      "stateMutability": "nonpayable",
      "type": "function"
    },
    {
      "inputs": [
        {
          "internalType": "address",
          "name": "operator",
          "type": "address"
        },
        {
          "internalType": "bool",
          "name": "approved",
          "type": "bool"
        }
      ],
      "name": "setApprovalForAll",
      "outputs": [],
      "stateMutability": "nonpayable",
      "type": "function"
    },
    {
      "inputs": [
        {
          "internalType": "string",
          "name": "baseURI",
          "type": "string"
        }
      ],
      "name": "setBaseURI",
      "outputs": [],
      "stateMutability": "nonpayable",
      "type": "function"
    },
    {
      "inputs": [
        {
          "internalType": "bytes4",
          "name": "interfaceId",
          "type": "bytes4"
        }
      ],
      "name": "supportsInterface",
      "outputs": [
        {
          "internalType": "bool",
          "name": "",
          "type": "bool"
        }
      ],
      "stateMutability": "view",
      "type": "function"
    },
    {
      "inputs": [],
      "name": "symbol",
      "outputs": [
        {
          "internalType": "string",
          "name": "",
          "type": "string"
        }
      ],
      "stateMutability": "view",
      "type": "function"
    },
    {
      "inputs": [
        {
          "internalType": "uint256",
          "name": "index",
          "type": "uint256"
        }
      ],
      "name": "tokenByIndex",
      "outputs": [
        {
          "internalType": "uint256",
          "name": "",
          "type": "uint256"
        }
      ],
      "stateMutability": "view",
      "type": "function"
    },
    {
      "inputs": [
        {
          "internalType": "address",
          "name": "owner",
          "type": "address"
        },
        {
          "internalType": "uint256",
          "name": "index",
          "type": "uint256"
        }
      ],
      "name": "tokenOfOwnerByIndex",
      "outputs": [
        {
          "internalType": "uint256",
          "name": "",
          "type": "uint256"
        }
      ],
      "stateMutability": "view",
      "type": "function"
    },
    {
      "inputs": [
        {
          "internalType": "uint256",
          "name": "tokenId",
          "type": "uint256"
        }
      ],
      "name": "tokenURI",
      "outputs": [
        {
          "internalType": "string",
          "name": "",
          "type": "string"
        }
      ],
      "stateMutability": "view",
      "type": "function"
    },
    {
      "inputs": [],
      "name": "totalSupply",
      "outputs": [
        {
          "internalType": "uint256",
          "name": "",
          "type": "uint256"
        }
      ],
      "stateMutability": "view",
      "type": "function"
    },
    {
      "inputs": [
        {
          "internalType": "address",
          "name": "from",
          "type": "address"
        },
        {
          "internalType": "address",
          "name": "to",
          "type": "address"
        },
        {
          "internalType": "uint256",
          "name": "tokenId",
          "type": "uint256"
        }
      ],
      "name": "transferFrom",
      "outputs": [],
      "stateMutability": "nonpayable",
      "type": "function"
    },
    {
      "inputs": [
        {
          "internalType": "address",
          "name": "",
          "type": "address"
        }
      ],
      "name": "walletMints",
      "outputs": [
        {
          "internalType": "uint256",
          "name": "",
          "type": "uint256"
        }
      ],
      "stateMutability": "view",
      "type": "function"
    }
  ],
  "bytecode": "0x608060405234801561001057600080fd5b506040516133c53803806133c58339818101604052810190610032919061024b565b6040518060400160405280600b81526020017f4176656e676572734e46540000000000000000000000000000000000000000008152506040518060400160405280600381526020017f41564e000000000000000000000000000000000000000000000000000000000081525081600090816100ad91906104b5565b5080600190816100bd91906104b5565b50505080600a90816100cf91906104b5565b5050610587565b6000604051905090565b600080fd5b600080fd5b600080fd5b600080fd5b6000601f19601f8301169050919050565b7f4e487b7100000000000000000000000000000000000000000000000000000000600052604160045260246000fd5b61013d826100f4565b810181811067ffffffffffffffff8211171561015c5761015b610105565b5b80604052505050565b600061016f6100d6565b905061017b8282610134565b919050565b600067ffffffffffffffff82111561019b5761019a610105565b5b6101a4826100f4565b9050602081019050919050565b60005b838110156101cf5780820151818401526020810190506101b4565b60008484015250505050565b60006101ee6101e984610180565b610165565b90508281526020810184848401111561020a576102096100ef565b5b6102158482856101b1565b509392505050565b600082601f830112610232576102316100ea565b5b81516102428482602086016101db565b91505092915050565b600060208284031215610261576102606100e0565b5b600082015167ffffffffffffffff81111561027f5761027e6100e5565b5b61028b8482850161021d565b91505092915050565b600081519050919050565b7f4e487b7100000000000000000000000000000000000000000000000000000000600052602260045260246000fd5b600060028204905060018216806102e657607f821691505b6020821081036102f9576102f861029f565b5b50919050565b60008190508160005260206000209050919050565b60006020601f8301049050919050565b600082821b905092915050565b6000600883026103617fffffffffffffffffffffffffffffffffffffffffffffffffffffffffffffffff82610324565b61036b8683610324565b95508019841693508086168417925050509392505050565b6000819050919050565b6000819050919050565b60006103b26103ad6103a884610383565b61038d565b610383565b9050919050565b6000819050919050565b6103cc83610397565b6103e06103d8826103b9565b848454610331565b825550505050565b600090565b6103f56103e8565b6104008184846103c3565b505050565b5b81811015610424576104196000826103ed565b600181019050610406565b5050565b601f8211156104695761043a816102ff565b61044384610314565b81016020851015610452578190505b61046661045e85610314565b830182610405565b50505b505050565b600082821c905092915050565b600061048c6000198460080261046e565b1980831691505092915050565b60006104a5838361047b565b9150826002028217905092915050565b6104be82610294565b67ffffffffffffffff8111156104d7576104d6610105565b5b6104e182546102ce565b6104ec828285610428565b600060209050601f83116001811461051f576000841561050d578287015190505b6105178582610499565b86555061057f565b601f19841661052d866102ff565b60005b8281101561055557848901518255600182019150602085019450602081019050610530565b86831015610572578489015161056e601f89168261047b565b8355505b6001600288020188555050505b505050505050565b612e2f806105966000396000f3fe6080604052600436106101355760003560e01c806355f804b3116100ab578063a0712d681161006f578063a0712d681461044e578063a22cb4651461046a578063b88d4fde14610493578063c87b56dd146104bc578063e985e9c5146104f9578063f0293fd31461053657610135565b806355f804b3146103555780636352211e1461037e57806370a08231146103bb5780638d859f3e146103f857806395d89b411461042357610135565b806318160ddd116100fd57806318160ddd1461023357806323b872dd1461025e5780632f745c591461028757806332cb6b0c146102c457806342842e0e146102ef5780634f6ccce71461031857610135565b806301ffc9a71461013a57806306fdde0314610177578063081812fc146101a2578063095ea7b3146101df5780630f2cdd6c14610208575b600080fd5b34801561014657600080fd5b50610161600480360381019061015c9190612096565b610573565b60405161016e91906120de565b60405180910390f35b34801561018357600080fd5b5061018c6105ed565b6040516101999190612189565b60405180910390f35b3480156101ae57600080fd5b506101c960048036038101906101c491906121e1565b61067f565b6040516101d6919061224f565b60405180910390f35b3480156101eb57600080fd5b5061020660048036038101906102019190612296565b61069b565b005b34801561021457600080fd5b5061021d6106b1565b60405161022a91906122e5565b60405180910390f35b34801561023f57600080fd5b506102486106b6565b60405161025591906122e5565b60405180910390f35b34801561026a57600080fd5b5061028560048036038101906102809190612300565b6106c3565b005b34801561029357600080fd5b506102ae60048036038101906102a99190612296565b6107c5565b6040516102bb91906122e5565b60405180910390f35b3480156102d057600080fd5b506102d961086e565b6040516102e691906122e5565b60405180910390f35b3480156102fb57600080fd5b5061031660048036038101906103119190612300565b610873565b005b34801561032457600080fd5b5061033f600480360381019061033a91906121e1565b610893565b60405161034c91906122e5565b60405180910390f35b34801561036157600080fd5b5061037c60048036038101906103779190612488565b610909565b005b34801561038a57600080fd5b506103a560048036038101906103a091906121e1565b61091c565b6040516103b2919061224f565b60405180910390f35b3480156103c757600080fd5b506103e260048036038101906103dd91906124d1565b61092e565b6040516103ef91906122e5565b60405180910390f35b34801561040457600080fd5b5061040d6109e8565b60405161041a91906122e5565b60405180910390f35b34801561042f57600080fd5b506104386109f3565b6040516104459190612189565b60405180910390f35b610468600480360381019061046391906121e1565b610a85565b005b34801561047657600080fd5b50610491600480360381019061048c919061252a565b610c53565b005b34801561049f57600080fd5b506104ba60048036038101906104b5919061260b565b610c69565b005b3480156104c857600080fd5b506104e360048036038101906104de91906121e1565b610c8e565b6040516104f09190612189565b60405180910390f35b34801561050557600080fd5b50610520600480360381019061051b919061268e565b610cf7565b60405161052d91906120de565b60405180910390f35b34801561054257600080fd5b5061055d600480360381019061055891906124d1565b610d8b565b60405161056a91906122e5565b60405180910390f35b60007f780e9d63000000000000000000000000000000000000000000000000000000007bffffffffffffffffffffffffffffffffffffffffffffffffffffffff1916827bffffffffffffffffffffffffffffffffffffffffffffffffffffffff191614806105e657506105e582610da3565b5b9050919050565b6060600080546105fc906126fd565b80601f0160208091040260200160405190810160405280929190818152602001828054610628906126fd565b80156106755780601f1061064a57610100808354040283529160200191610675565b820191906000526020600020905b81548152906001019060200180831161065857829003601f168201915b5050505050905090565b600061068a82610e85565b5061069482610f0d565b9050919050565b6106ad82826106a8610f4a565b610f52565b5050565b600581565b6000600880549050905090565b600073ffffffffffffffffffffffffffffffffffffffff168273ffffffffffffffffffffffffffffffffffffffff16036107355760006040517f64a0ae9200000000000000000000000000000000000000000000000000000000815260040161072c919061224f565b60405180910390fd5b60006107498383610744610f4a565b610f64565b90508373ffffffffffffffffffffffffffffffffffffffff168173ffffffffffffffffffffffffffffffffffffffff16146107bf578382826040517f64283d7b0000000000000000000000000000000000000000000000000000000081526004016107b69392919061272e565b60405180910390fd5b50505050565b60006107d08361092e565b82106108155782826040517fa57d13dc00000000000000000000000000000000000000000000000000000000815260040161080c929190612765565b60405180910390fd5b600660008473ffffffffffffffffffffffffffffffffffffffff1673ffffffffffffffffffffffffffffffffffffffff168152602001908152602001600020600083815260200190815260200160002054905092915050565b600a81565b61088e83838360405180602001604052806000815250610c69565b505050565b600061089d6106b6565b82106108e3576000826040517fa57d13dc0000000000000000000000000000000000000000000000000000000081526004016108da929190612765565b60405180910390fd5b600882815481106108f7576108f661278e565b5b90600052602060002001549050919050565b80600a90816109189190612969565b5050565b600061092782610e85565b9050919050565b60008073ffffffffffffffffffffffffffffffffffffffff168273ffffffffffffffffffffffffffffffffffffffff16036109a15760006040517f89c62b64000000000000000000000000000000000000000000000000000000008152600401610998919061224f565b60405180910390fd5b600360008373ffffffffffffffffffffffffffffffffffffffff1673ffffffffffffffffffffffffffffffffffffffff168152602001908152602001600020549050919050565b66016bcc41e9000081565b606060018054610a02906126fd565b80601f0160208091040260200160405190810160405280929190818152602001828054610a2e906126fd565b8015610a7b5780601f10610a5057610100808354040283529160200191610a7b565b820191906000526020600020905b815481529060010190602001808311610a5e57829003601f168201915b5050505050905090565b600a81610a906106b6565b610a9a9190612a6a565b1115610adb576040517f08c379a0000000000000000000000000000000000000000000000000000000008152600401610ad290612aea565b60405180910390fd5b600581600b60003373ffffffffffffffffffffffffffffffffffffffff1673ffffffffffffffffffffffffffffffffffffffff16815260200190815260200160002054610b289190612a6a565b1115610b69576040517f08c379a0000000000000000000000000000000000000000000000000000000008152600401610b6090612b56565b60405180910390fd5b8066016bcc41e90000610b7c9190612b76565b341015610bbe576040517f08c379a0000000000000000000000000000000000000000000000000000000008152600401610bb590612c04565b60405180910390fd5b80600b60003373ffffffffffffffffffffffffffffffffffffffff1673ffffffffffffffffffffffffffffffffffffffff1681526020019081526020016000206000828254610c0d9190612a6a565b9250508190555060005b81811015610c4f5760006001610c2b6106b6565b610c359190612a6a565b9050610c413382611081565b508080600101915050610c17565b5050565b610c65610c5e610f4a565b838361109f565b5050565b610c748484846106c3565b610c88610c7f610f4a565b8585858561120e565b50505050565b6060610c9982610e85565b506000610ca46113bf565b90506000815111610cc45760405180602001604052806000815250610cef565b80610cce84611451565b604051602001610cdf929190612c60565b6040516020818303038152906040525b915050919050565b6000600560008473ffffffffffffffffffffffffffffffffffffffff1673ffffffffffffffffffffffffffffffffffffffff16815260200190815260200160002060008373ffffffffffffffffffffffffffffffffffffffff1673ffffffffffffffffffffffffffffffffffffffff16815260200190815260200160002060009054906101000a900460ff16905092915050565b600b6020528060005260406000206000915090505481565b60007f80ac58cd000000000000000000000000000000000000000000000000000000007bffffffffffffffffffffffffffffffffffffffffffffffffffffffff1916827bffffffffffffffffffffffffffffffffffffffffffffffffffffffff19161480610e6e57507f5b5e139f000000000000000000000000000000000000000000000000000000007bffffffffffffffffffffffffffffffffffffffffffffffffffffffff1916827bffffffffffffffffffffffffffffffffffffffffffffffffffffffff1916145b80610e7e5750610e7d8261151f565b5b9050919050565b600080610e9183611589565b9050600073ffffffffffffffffffffffffffffffffffffffff168173ffffffffffffffffffffffffffffffffffffffff1603610f0457826040517f7e273289000000000000000000000000000000000000000000000000000000008152600401610efb91906122e5565b60405180910390fd5b80915050919050565b60006004600083815260200190815260200160002060009054906101000a900473ffffffffffffffffffffffffffffffffffffffff169050919050565b600033905090565b610f5f83838360016115c6565b505050565b600080610f7285858561178b565b9050600073ffffffffffffffffffffffffffffffffffffffff168173ffffffffffffffffffffffffffffffffffffffff1603610fb657610fb1846119a5565b610ff5565b8473ffffffffffffffffffffffffffffffffffffffff168173ffffffffffffffffffffffffffffffffffffffff1614610ff457610ff381856119ee565b5b5b600073ffffffffffffffffffffffffffffffffffffffff168573ffffffffffffffffffffffffffffffffffffffff16036110375761103284611ad9565b611076565b8473ffffffffffffffffffffffffffffffffffffffff168173ffffffffffffffffffffffffffffffffffffffff1614611075576110748585611baa565b5b5b809150509392505050565b61109b828260405180602001604052806000815250611c35565b5050565b600073ffffffffffffffffffffffffffffffffffffffff168273ffffffffffffffffffffffffffffffffffffffff160361111057816040517f5b08ba18000000000000000000000000000000000000000000000000000000008152600401611107919061224f565b60405180910390fd5b80600560008573ffffffffffffffffffffffffffffffffffffffff1673ffffffffffffffffffffffffffffffffffffffff16815260200190815260200160002060008473ffffffffffffffffffffffffffffffffffffffff1673ffffffffffffffffffffffffffffffffffffffff16815260200190815260200160002060006101000a81548160ff0219169083151502179055508173ffffffffffffffffffffffffffffffffffffffff168373ffffffffffffffffffffffffffffffffffffffff167f17307eab39ab6107e8899845ad3d59bd9653f200f220920489ca2b5937696c318360405161120191906120de565b60405180910390a3505050565b60008373ffffffffffffffffffffffffffffffffffffffff163b11156113b8578273ffffffffffffffffffffffffffffffffffffffff1663150b7a02868685856040518563ffffffff1660e01b815260040161126d9493929190612cd9565b6020604051808303816000875af19250505080156112a957506040513d601f19601f820116820180604052508101906112a69190612d3a565b60015b61132d573d80600081146112d9576040519150601f19603f3d011682016040523d82523d6000602084013e6112de565b606091505b50600081510361132557836040517f64a0ae9200000000000000000000000000000000000000000000000000000000815260040161131c919061224f565b60405180910390fd5b805181602001fd5b63150b7a0260e01b7bffffffffffffffffffffffffffffffffffffffffffffffffffffffff1916817bffffffffffffffffffffffffffffffffffffffffffffffffffffffff1916146113b657836040517f64a0ae920000000000000000000000000000000000000000000000000000000081526004016113ad919061224f565b60405180910390fd5b505b5050505050565b6060600a80546113ce906126fd565b80601f01602080910402602001604051908101604052809291908181526020018280546113fa906126fd565b80156114475780601f1061141c57610100808354040283529160200191611447565b820191906000526020600020905b81548152906001019060200180831161142a57829003601f168201915b5050505050905090565b60606000600161146084611c59565b01905060008167ffffffffffffffff81111561147f5761147e61235d565b5b6040519080825280601f01601f1916602001820160405280156114b15781602001600182028036833780820191505090505b509050600082602001820190505b600115611514578080600190039150507f3031323334353637383961626364656600000000000000000000000000000000600a86061a8153600a858161150857611507612d67565b5b049450600085036114bf575b819350505050919050565b60007f01ffc9a7000000000000000000000000000000000000000000000000000000007bffffffffffffffffffffffffffffffffffffffffffffffffffffffff1916827bffffffffffffffffffffffffffffffffffffffffffffffffffffffff1916149050919050565b60006002600083815260200190815260200160002060009054906101000a900473ffffffffffffffffffffffffffffffffffffffff169050919050565b80806115ff5750600073ffffffffffffffffffffffffffffffffffffffff168273ffffffffffffffffffffffffffffffffffffffff1614155b1561173357600061160f84610e85565b9050600073ffffffffffffffffffffffffffffffffffffffff168373ffffffffffffffffffffffffffffffffffffffff161415801561167a57508273ffffffffffffffffffffffffffffffffffffffff168173ffffffffffffffffffffffffffffffffffffffff1614155b801561168d575061168b8184610cf7565b155b156116cf57826040517fa9fbf51f0000000000000000000000000000000000000000000000000000000081526004016116c6919061224f565b60405180910390fd5b811561173157838573ffffffffffffffffffffffffffffffffffffffff168273ffffffffffffffffffffffffffffffffffffffff167f8c5be1e5ebec7d5bd14f71427d1e84f3dd0314c0f7b2291e5b200ac8c7c3b92560405160405180910390a45b505b836004600085815260200190815260200160002060006101000a81548173ffffffffffffffffffffffffffffffffffffffff021916908373ffffffffffffffffffffffffffffffffffffffff16021790555050505050565b60008061179784611589565b9050600073ffffffffffffffffffffffffffffffffffffffff168373ffffffffffffffffffffffffffffffffffffffff16146117d9576117d8818486611dac565b5b600073ffffffffffffffffffffffffffffffffffffffff168173ffffffffffffffffffffffffffffffffffffffff161461186a5761181b6000856000806115c6565b6001600360008373ffffffffffffffffffffffffffffffffffffffff1673ffffffffffffffffffffffffffffffffffffffff168152602001908152602001600020600082825403925050819055505b600073ffffffffffffffffffffffffffffffffffffffff168573ffffffffffffffffffffffffffffffffffffffff16146118ed576001600360008773ffffffffffffffffffffffffffffffffffffffff1673ffffffffffffffffffffffffffffffffffffffff168152602001908152602001600020600082825401925050819055505b846002600086815260200190815260200160002060006101000a81548173ffffffffffffffffffffffffffffffffffffffff021916908373ffffffffffffffffffffffffffffffffffffffff160217905550838573ffffffffffffffffffffffffffffffffffffffff168273ffffffffffffffffffffffffffffffffffffffff167fddf252ad1be2c89b69c2b068fc378daa952ba7f163c4a11628f55a4df523b3ef60405160405180910390a4809150509392505050565b6008805490506009600083815260200190815260200160002081905550600881908060018154018082558091505060019003906000526020600020016000909190919091505550565b60006119f98361092e565b90506000600760008481526020019081526020016000205490506000600660008673ffffffffffffffffffffffffffffffffffffffff1673ffffffffffffffffffffffffffffffffffffffff1681526020019081526020016000209050828214611aa55760008160008581526020019081526020016000205490508082600085815260200190815260200160002081905550826007600083815260200190815260200160002081905550505b6007600085815260200190815260200160002060009055806000848152602001908152602001600020600090555050505050565b60006001600880549050611aed9190612d96565b9050600060096000848152602001908152602001600020549050600060088381548110611b1d57611b1c61278e565b5b906000526020600020015490508060088381548110611b3f57611b3e61278e565b5b906000526020600020018190555081600960008381526020019081526020016000208190555060096000858152602001908152602001600020600090556008805480611b8e57611b8d612dca565b5b6001900381819060005260206000200160009055905550505050565b60006001611bb78461092e565b611bc19190612d96565b905081600660008573ffffffffffffffffffffffffffffffffffffffff1673ffffffffffffffffffffffffffffffffffffffff168152602001908152602001600020600083815260200190815260200160002081905550806007600084815260200190815260200160002081905550505050565b611c3f8383611e70565b611c54611c4a610f4a565b600085858561120e565b505050565b600080600090507a184f03e93ff9f4daa797ed6e38ed64bf6a1f0100000000000000008310611cb7577a184f03e93ff9f4daa797ed6e38ed64bf6a1f0100000000000000008381611cad57611cac612d67565b5b0492506040810190505b6d04ee2d6d415b85acef81000000008310611cf4576d04ee2d6d415b85acef81000000008381611cea57611ce9612d67565b5b0492506020810190505b662386f26fc100008310611d2357662386f26fc100008381611d1957611d18612d67565b5b0492506010810190505b6305f5e1008310611d4c576305f5e1008381611d4257611d41612d67565b5b0492506008810190505b6127108310611d71576127108381611d6757611d66612d67565b5b0492506004810190505b60648310611d945760648381611d8a57611d89612d67565b5b0492506002810190505b600a8310611da3576001810190505b80915050919050565b611db7838383611f69565b611e6b57600073ffffffffffffffffffffffffffffffffffffffff168373ffffffffffffffffffffffffffffffffffffffff1603611e2c57806040517f7e273289000000000000000000000000000000000000000000000000000000008152600401611e2391906122e5565b60405180910390fd5b81816040517f177e802f000000000000000000000000000000000000000000000000000000008152600401611e62929190612765565b60405180910390fd5b505050565b600073ffffffffffffffffffffffffffffffffffffffff168273ffffffffffffffffffffffffffffffffffffffff1603611ee25760006040517f64a0ae92000000000000000000000000000000000000000000000000000000008152600401611ed9919061224f565b60405180910390fd5b6000611ef083836000610f64565b9050600073ffffffffffffffffffffffffffffffffffffffff168173ffffffffffffffffffffffffffffffffffffffff1614611f645760006040517f73c6ac6e000000000000000000000000000000000000000000000000000000008152600401611f5b919061224f565b60405180910390fd5b505050565b60008073ffffffffffffffffffffffffffffffffffffffff168373ffffffffffffffffffffffffffffffffffffffff161415801561202157508273ffffffffffffffffffffffffffffffffffffffff168473ffffffffffffffffffffffffffffffffffffffff161480611fe25750611fe18484610cf7565b5b8061202057508273ffffffffffffffffffffffffffffffffffffffff1661200883610f0d565b73ffffffffffffffffffffffffffffffffffffffff16145b5b90509392505050565b6000604051905090565b600080fd5b600080fd5b60007fffffffff0000000000000000000000000000000000000000000000000000000082169050919050565b6120738161203e565b811461207e57600080fd5b50565b6000813590506120908161206a565b92915050565b6000602082840312156120ac576120ab612034565b5b60006120ba84828501612081565b91505092915050565b60008115159050919050565b6120d8816120c3565b82525050565b60006020820190506120f360008301846120cf565b92915050565b600081519050919050565b600082825260208201905092915050565b60005b83811015612133578082015181840152602081019050612118565b60008484015250505050565b6000601f19601f8301169050919050565b600061215b826120f9565b6121658185612104565b9350612175818560208601612115565b61217e8161213f565b840191505092915050565b600060208201905081810360008301526121a38184612150565b905092915050565b6000819050919050565b6121be816121ab565b81146121c957600080fd5b50565b6000813590506121db816121b5565b92915050565b6000602082840312156121f7576121f6612034565b5b6000612205848285016121cc565b91505092915050565b600073ffffffffffffffffffffffffffffffffffffffff82169050919050565b60006122398261220e565b9050919050565b6122498161222e565b82525050565b60006020820190506122646000830184612240565b92915050565b6122738161222e565b811461227e57600080fd5b50565b6000813590506122908161226a565b92915050565b600080604083850312156122ad576122ac612034565b5b60006122bb85828601612281565b92505060206122cc858286016121cc565b9150509250929050565b6122df816121ab565b82525050565b60006020820190506122fa60008301846122d6565b92915050565b60008060006060848603121561231957612318612034565b5b600061232786828701612281565b935050602061233886828701612281565b9250506040612349868287016121cc565b9150509250925092565b600080fd5b600080fd5b7f4e487b7100000000000000000000000000000000000000000000000000000000600052604160045260246000fd5b6123958261213f565b810181811067ffffffffffffffff821117156123b4576123b361235d565b5b80604052505050565b60006123c761202a565b90506123d3828261238c565b919050565b600067ffffffffffffffff8211156123f3576123f261235d565b5b6123fc8261213f565b9050602081019050919050565b82818337600083830152505050565b600061242b612426846123d8565b6123bd565b90508281526020810184848401111561244757612446612358565b5b612452848285612409565b509392505050565b600082601f83011261246f5761246e612353565b5b813561247f848260208601612418565b91505092915050565b60006020828403121561249e5761249d612034565b5b600082013567ffffffffffffffff8111156124bc576124bb612039565b5b6124c88482850161245a565b91505092915050565b6000602082840312156124e7576124e6612034565b5b60006124f584828501612281565b91505092915050565b612507816120c3565b811461251257600080fd5b50565b600081359050612524816124fe565b92915050565b6000806040838503121561254157612540612034565b5b600061254f85828601612281565b925050602061256085828601612515565b9150509250929050565b600067ffffffffffffffff8211156125855761258461235d565b5b61258e8261213f565b9050602081019050919050565b60006125ae6125a98461256a565b6123bd565b9050828152602081018484840111156125ca576125c9612358565b5b6125d5848285612409565b509392505050565b600082601f8301126125f2576125f1612353565b5b813561260284826020860161259b565b91505092915050565b6000806000806080858703121561262557612624612034565b5b600061263387828801612281565b945050602061264487828801612281565b9350506040612655878288016121cc565b925050606085013567ffffffffffffffff81111561267657612675612039565b5b612682878288016125dd565b91505092959194509250565b600080604083850312156126a5576126a4612034565b5b60006126b385828601612281565b92505060206126c485828601612281565b9150509250929050565b7f4e487b7100000000000000000000000000000000000000000000000000000000600052602260045260246000fd5b6000600282049050600182168061271557607f821691505b602082108103612728576127276126ce565b5b50919050565b60006060820190506127436000830186612240565b61275060208301856122d6565b61275d6040830184612240565b949350505050565b600060408201905061277a6000830185612240565b61278760208301846122d6565b9392505050565b7f4e487b7100000000000000000000000000000000000000000000000000000000600052603260045260246000fd5b60008190508160005260206000209050919050565b60006020601f8301049050919050565b600082821b905092915050565b60006008830261281f7fffffffffffffffffffffffffffffffffffffffffffffffffffffffffffffffff826127e2565b61282986836127e2565b95508019841693508086168417925050509392505050565b6000819050919050565b600061286661286161285c846121ab565b612841565b6121ab565b9050919050565b6000819050919050565b6128808361284b565b61289461288c8261286d565b8484546127ef565b825550505050565b600090565b6128a961289c565b6128b4818484612877565b505050565b5b818110156128d8576128cd6000826128a1565b6001810190506128ba565b5050565b601f82111561291d576128ee816127bd565b6128f7846127d2565b81016020851015612906578190505b61291a612912856127d2565b8301826128b9565b50505b505050565b600082821c905092915050565b600061294060001984600802612922565b1980831691505092915050565b6000612959838361292f565b9150826002028217905092915050565b612972826120f9565b67ffffffffffffffff81111561298b5761298a61235d565b5b61299582546126fd565b6129a08282856128dc565b600060209050601f8311600181146129d357600084156129c1578287015190505b6129cb858261294d565b865550612a33565b601f1984166129e1866127bd565b60005b82811015612a09578489015182556001820191506020850194506020810190506129e4565b86831015612a265784890151612a22601f89168261292f565b8355505b6001600288020188555050505b505050505050565b7f4e487b7100000000000000000000000000000000000000000000000000000000600052601160045260246000fd5b6000612a75826121ab565b9150612a80836121ab565b9250828201905080821115612a9857612a97612a3b565b5b92915050565b7f45786365656473206d617820737570706c790000000000000000000000000000600082015250565b6000612ad4601283612104565b9150612adf82612a9e565b602082019050919050565b60006020820190508181036000830152612b0381612ac7565b9050919050565b7f457863656564732077616c6c6574206c696d6974000000000000000000000000600082015250565b6000612b40601483612104565b9150612b4b82612b0a565b602082019050919050565b60006020820190508181036000830152612b6f81612b33565b9050919050565b6000612b81826121ab565b9150612b8c836121ab565b9250828202612b9a816121ab565b91508282048414831517612bb157612bb0612a3b565b5b5092915050565b7f45746865722073656e74206973206e6f7420636f727265637400000000000000600082015250565b6000612bee601983612104565b9150612bf982612bb8565b602082019050919050565b60006020820190508181036000830152612c1d81612be1565b9050919050565b600081905092915050565b6000612c3a826120f9565b612c448185612c24565b9350612c54818560208601612115565b80840191505092915050565b6000612c6c8285612c2f565b9150612c788284612c2f565b91508190509392505050565b600081519050919050565b600082825260208201905092915050565b6000612cab82612c84565b612cb58185612c8f565b9350612cc5818560208601612115565b612cce8161213f565b840191505092915050565b6000608082019050612cee6000830187612240565b612cfb6020830186612240565b612d0860408301856122d6565b8181036060830152612d1a8184612ca0565b905095945050505050565b600081519050612d348161206a565b92915050565b600060208284031215612d5057612d4f612034565b5b6000612d5e84828501612d25565b91505092915050565b7f4e487b7100000000000000000000000000000000000000000000000000000000600052601260045260246000fd5b6000612da1826121ab565b9150612dac836121ab565b9250828203905081811115612dc457612dc3612a3b565b5b92915050565b7f4e487b7100000000000000000000000000000000000000000000000000000000600052603160045260246000fdfea26469706673582212203b8aadcc1665eb313030a5d260285dc0518b23be13a0e7ee7a4dd9e209874b7964736f6c634300081b0033",
  "linkReferences": {},
  "deployedLinkReferences": {}
}